:02000004085F93
:10C0000000C05F08FCFF5F0800000600200005017B
:08C0100004010D1700000000FF
:10C018001348144908B5884205D0134A824202D011
:10C02800124B121A98471248124A0021124B121A40
:10C03800984712481249884205D0124A824202D0D3
:10C048000A4B121A984710481049884205D0104ADE
:10C05800824202D0054B121A9847014808BD00BF1A
:10C06800A8A9071034F45F0828AE07102D0D111089
:10C0780028AE0710FCAF0710A10E111070CC3F02BC
:10C08800A8C05F0878CC3F0278CC3F02B0C05F08F8
:0CC09800FCFF3F0219C05F080000000020
:08C0A8009CC05F0800F03F029C
:10C0B000034613F8012B002AFBD1181A01387047E8
:10C0C00070B501F07FFC0025054E064CA41BA408AA
:10C0D000AC4200D170BD56F8043B98470135F7E7F4
:10C0E000D4FF3F02FCFF3F0200F020B808B500F08B
:10C0F00051F8BDE8084001F01DBC01F00DBA01F097
:10C1000019BA00000C2008B5024A034901F0DEF814
:10C11000FEE700BF19DA3F0210F03F020078B0FAE4
:10C1200080F04009704701230370704738B501F073
:10C1300055FD4FF4165101F041FD002000F0A4FE22
:10C1400041F288350446002000F09EFE001B61F19C
:10C150000001A84271F1000307D201F03FFD01F098
:10C1600031FD10B901F0BCF9EDE701F037FD01F048
:10C1700029FD3C220221054800F046FBBDE838407D
:10C180003D220221024800F03FBB00BF34AE071041
:10C1900058AE0710F0B5274885B000F04FFA264892
:10C1A00000F04CFA40250022012680241146234B42
:10C1B0002048CDE90156009400F0EAFC00221F4B14
:10C1C00011461D48CDE90156009400F0E1FC1948E4
:10C1D00000F0AAFA184800F0A7FA00F047FE184F3E
:10C1E0003B68C01A41F28833984220D9114800F0C8
:10C1F00025FA114800F022FA0022124B11460D4890
:10C20000CDE90156009400F0C3FC00220D4B11460D
:10C210000948CDE90156009400F0BAFC054800F049
:10C2200083FA054800F080FA00F020FE386005B07F
:10C23000F0BD00BF34AE071058AE071025F03F0226
:10C240007CAE071025F43F02002208B50A4B0220FD
:10C25000C3E90022A2F580329A6001F045F84FF060
:10C26000FF31064800F0D4F9BDE808404FF0FF3137
:10C27000034800F0CDB900BF28AE071034AE071058
:10C2800058AE0710F0B5457EBDF81440022D69D0B8
:10C29000032D00F09B80012D6CD1D24305892A44E7
:10C2A00012B2002A5DDBB0F90850954259DD002931
:10C2B000BEBF5B1800211BB2B0F90A00CD18854241
:10C2C000C4BF431A1BB2002B4BDDC1F3C400DFF81F
:10C2D00024C102EBC01211F00701DBB20CEB02002B
:10C2E0001AD0C1F10805414EEDB2AB42775D3FBFB8
:10C2F000FF26A5EB030E46FA0EF637401CF8026047
:10C30000012C0CBF3E43BE43AB420CF8026028D365
:10C3100008390B44DBB28030072B19D9012C4FF0C0
:10C32000FF3518BF00251A46EDB200F18001083A2A
:10C33000D2B2072A01F8805C01F18001F7D8A3F19D
:10C340000802C2F3C402013200EBC21003F007037B
:10C350003BB1274A012CD25C03780CBF13439343B3
:10C360000370F0BDD24345892A44CD18018912B229
:10C37000491B09B2002AF4DBB0F90A509542F0DDFE
:10C380000029BEBF5B1800211BB2B0F90870CE189F
:10C39000BE42C4BF6B1A1BB2002BE2DD8025D01059
:10C3A00010FB05111348012C014402F007004FF067
:10C3B000010202FA00F2D2B20B440CD18B42D0D06F
:10C3C00011F8010B104301F8010CF7E7CD18418972
:10C3D000491B09B265E7D243D2B28B42C1D011F8F2
:10C3E000010B104001F8010CF7E700BFB4A90710DA
:10C3F000ACA90710BCA90710F0B5457EBDF81440E4
:10C40000022D36D0032D00F09D80012D39D1D51895
:10C410000289521B12B20029C0F29380B0F90A506F
:10C420008D4240F38E80002ABEBF9B1800221BB2B3
:10C43000B0F90870D618BE42C4BFAB1A1BB2002BAD
:10C440007FDD8025C81010FB05224648012C0244E0
:10C4500001F007004FF0010101FA00F1C9B21344E5
:10C4600075D19A426DD012F8010B084302F8010C05
:10C47000F7E7C94305892944D518428909B2521BF7
:10C4800012B200295DDBB0F908508D4259DD002A57
:10C49000BEBF9B1800221BB2B0F90A00D518854216
:10C4A000C4BF831A1BB2002B4BDDC2F3C400DFF8FC
:10C4B000B4C001EBC01112F00702DBB20CEB0100BB
:10C4C0001AD0C2F10805284EEDB2AB42775D3FBFEE
:10C4D000FF26A5EB030E46FA0EF637401CF8016066
:10C4E000012C0CBF3E43BE43AB420CF8016028D385
:10C4F000083A1344DBB28030072B19D9012C4FF0D6
:10C50000FF3518BF00251A46EDB200F18001083A48
:10C51000D2B2072A01F8805C01F18001F7D8A3F1BB
:10C520000802C2F3C402013200EBC21003F0070399
:10C530003BB10E4A012CD25C03780CBF13439343EA
:10C540000370F0BDC9434589294409B263E7C94373
:10C55000C9B29A42F5D012F8010B084002F8010C5A
:10C56000F7E700BFBCA90710B4A90710ACA90710D2
:10C5700070470000F8B50D1E064614461F462DDB19
:10C5800000F00CFCA84229DD002C27DB304600F02F
:10C5900008FCA04222DD304600F0FEFB02281ED03F
:10C5A000032825D0012804D1E24333892C461A44BC
:10C5B00015B222468021002CB8BFE21DD21012FB1A
:10C5C000015501220D4904F007044B5702FA04F407
:10C5D00064B297420CBF2343A3434B55F8BDE443D9
:10C5E0003189728901394D1B14442DB224B2E0E720
:10C5F0007389013B5B1B25461CB2DAE7BCA9071017
:10C6000010B504462421FFF77AFD204610BD000036
:10C6100038B504460D464022802100F0A5FA064BAD
:10C6200020462360FF2384F8213063774FF6FF73A1
:10C6300084F82050E38338BD30F83F024FF4806225
:10C640000021014801F059BEBCA9071013B50A4CDE
:10C65000D4E88F1F11F001010BD120460191FFF7A3
:10C660005DFD019928B1054800F0D2FF2046FFF793
:10C670005AFD024802B010BD80AE071084AE07100C
:10C6800007B590F8223043B10191FFF7DFFF019920
:10C6900003B05DF804EB01F06FB80B460122817F17
:10C6A000407F03B05DF804EB01F0F0BC38B590F9C1
:10C6B0001D30044601330D461DD090F921000121A3
:10C6C00080B201F0CAFC94F91F00002180B201F091
:10C6D000C4FC94F92100002180B201F0BEFC29467F
:10C6E0002046FFF7CDFF94F921000121BDE8384035
:10C6F00080B201F0B2BC01F0C7FD94F91B1001F04B
:10C700003BFB01F0C1FD036800219B68984701F0E5
:10C71000BBFD036829469B68984701F0B5FDBDE85D
:10C72000384001F030BB0000F8B504462121FFF786
:10C73000BDFF00212046FFF7B9FF7F212046FFF70C
:10C74000B5FF22212046FFF7B1FF00212046FFF769
:10C75000ADFF07212046FFF7A9FF94F91D30294FAF
:10C7600001332AD094F92100012180B201F075FC37
:10C7700094F91F00012180B201F06FFC94F92100AF
:10C78000002180B201F069FC012000F061FB4FF450
:10C790008065013D204617F8011BADB2FFF770FF21
:10C7A000002DF6D1012000F053FB94F92100012166
:10C7B000BDE8F84080B201F050BC002501F064FDF6
:10C7C00094F91B1001F0D8FA01F05EFD03684021D6
:10C7D0009B68984705F11006B6B201F055FD036855
:10C7E000795D9B6898476B1C9DB2AE42F5D101F014
:10C7F0004BFD01F0C8FAB6F5806F00D1F8BD3546A3
:10C80000DCE700BFBCA9071038B590F91D3004461D
:10C8100001330D460177C27600F0C98090F91F0000
:10C82000012180B201F008FC94F92100012180B2BD
:10C8300001F002FC94F82230002B00F0A68094F95D
:10C840002100012180B201F008FCFFF7FFFE012169
:10C8500000F0FCFEFFF7FAFE102100F067FFFFF783
:10C86000F5FE002100F006FFFFF7F0FE00F0DAFE13
:10C8700094F92000012180B201F0DEFB94F9200040
:10C88000012180B201F0E9FB012001F01BF894F9CD
:10C890002000002180B201F0E0FB0A2001F012F834
:10C8A00094F92000012180B201F0D7FB2046AE218F
:10C8B000FFF7FCFE2046D521FFF7F8FE2046802139
:10C8C000FFF7F4FE2046A821FFF7F0FE20463F21A7
:10C8D000FFF7ECFE2046D321FFF7E8FE20460021BB
:10C8E000FFF7E4FE20464021FFF7E0FE8D212046C1
:10C8F000FFF7DCFE012D0CBF102114212046FFF7AD
:10C90000D5FE20462021FFF7D1FE20460021FFF76B
:10C91000CDFE2046A121FFF7C9FE2046C821FFF722
:10C92000C5FE2046DA21FFF7C1FE20461221FFF79F
:10C93000BDFE81212046FFF7B9FE012D0CBF9F21CE
:10C94000CF212046FFF7B2FED9212046FFF7AEFEE9
:10C95000012D0CBF2221F1212046FFF7A7FE204622
:10C96000DB21FFF7A3FE20464021FFF79FFE204674
:10C97000A421FFF79BFE2046A621FFF797FE204645
:10C98000BDE83840AF21FFF791BE94F91D000121A9
:10C9900080B201F051FB94F91E00012180B201F038
:10C9A0004BFB94F82230002B3FF462AF47E701F0D5
:10C9B0006BFC01F0D7F95BE72DE9F04F1F4685B01E
:10C9C000BDF93880A7EB010AA8EB0209B9F1000F05
:10C9D000B8BFC9F10009BAF1000FB8BFCAF1000A27
:10C9E000D14583460C461546BDF83C3004DD3A4639
:10C9F0002C4647460D469046BC4205DD2A46454634
:10CA0000904622463C4617463E1BB2B20092A8EB27
:10CA1000050282EAE271A1EBE271C6F3C03202FACA
:10CA200086F64545B4BF01224FF0FF3201917610E2
:10CA30000292BC421CDCDBF80020D145D2F8108009
:10CA4000C7BF294622462A46214603935846C04777
:10CA5000019A039BB61AB1B236B2002E05DA029AD9
:10CA60001544009A2DB2561836B2013424B2E0E7CC
:10CA700005B0BDE8F08F2DE9F347044616468A4617
:10CA80001D46BDF82C800768BDF92890CDF80080C0
:10CA9000FF69B847236809F1FF32CDF800803244BE
:10CAA00051462046DF6912B22B46B8472368CDF8BD
:10CAB00000803246514620469F694B46B8476B1E60
:10CAC00003EB0A012368CDF828809D6932464B4666
:10CAD0002046AC4609B202B0BDE8F047604737B522
:10CAE000013BBDF81850134404681BB20093019534
:10CAF0000B466469A04703B030BD37B5BDF8185088
:10CB00000468CDE90025013B0B4464691BB2A047D2
:10CB100003B030BD2DE9F347054692460C46BDF9FA
:10CB20002890BDF82C80CE18B4420BDA2B68CDF8D3
:10CB3000008021469F6952464B4628460134B8473B
:10CB400024B2F1E702B0BDE8F08713B50191B0F966
:10CB50000E1002680091546A0022B0F90C301146A0
:10CB6000A04702B010BD70474281C2814FF0FF3232
:10CB700030B5426100240122044D4460056001810A
:10CB8000818104610283827630BD00BF64FD3F0273
:10CB90002DE9F04F00244FF08009254689B0BDF9FA
:10CBA0004870CDE90323BDF94C30FA1DCDE90101F0
:10CBB000059348BF07F10E02BDF850304FEAE20B73
:10CBC00005992AB291422ADD4FF00008049A02EB3F
:10CBD000040A039A2A4412B20FFA88F087421FFA15
:10CBE00088F119DDC0101AF800C001F0070049FAF9
:10CBF00000F01CEA000F0CD00298CDE90623014496
:10CC0000019809B20068006906460198B047DDE95D
:10CC1000062308F10108DFE701355C44D0E709B0DD
:10CC2000BDE8F08F2DE9F04F2DED028B8DB0049112
:10CC3000BDF8601007460591BDF864109DF8685076
:10CC40000691B0F90C100498814252DDB7F90E102C
:10CC500091424EDD062111FB0504002C49DD02EB5B
:10CC6000C504002C45DD002403EB83030B9393B232
:10CC7000079308339BB208910993052C0FBF00233B
:10CC80002B4B0B9A1B1918BF9B5C049A0393ABB2F6
:10CC90000A9304FB05F3079E13FA82F31BB208EE16
:10CCA000103AB04604EB020A0FFA85F90FFA8AFA35
:10CCB000039BDB072FD5012D3B681FD1D3F810B0A4
:10CCC000059B5146384632B2D847039B01365B0874
:10CCD00003930A9BB6B29844099B1FFA88F8B342A3
:10CCE000E6D1089B0134013B13F0FF0364B20893C3
:10CCF000C3D10DB0BDEC028BBDE8F08F059ACDE934
:10CD0000009218EE101AD3F824B038464B460FFAAA
:10CD100088F2D847D9E7DDE905239342D5D0012D24
:10CD20003B6803D1D3F810B0069BCAE7069AE6E742
:10CD300060F83F0230B50A29044685B007D1027E6B
:10CD4000638A03EBC20363820023238221E00D295F
:10CD50001FD0037E0293C38A0193838A0093B0F9A4
:10CD600012200B46B0F91010FFF75CFF207E238ADB
:10CD700000EB400103EB4103A17E1BB2024623827C
:10CD800039B16FF00505B4F90C1005FB00118B42A9
:10CD9000D6DC012005B030BD407E7047B0F90C00F4
:10CDA0007047B0F90E00704709B504480068044B9D
:10CDB00003441B689B68029309BD0000A8A90710E3
:10CDC0005000000009B504480068044B03441B6888
:10CDD000DB68029309BD0000A8A9071050000000FD
:10CDE00009B504480068044B03441B689B68029320
:10CDF00009BD0000A8A907101400000009B50448E7
:10CE00000068044B03441B68DB68029309BD000003
:10CE1000A8A907101400000009B504480068044BD5
:10CE200003441B681B69029309BD0000A8A90710F1
:10CE30001400000009B504480068044B03441B6853
:10CE40005B68029309BD0000A8A90710000000005C
:10CE500009B504480068044B03441B68DB6802936F
:10CE600009BD0000A8A907100000000009B504488A
:10CE70000068044B03441B685B69029309BD000012
:10CE8000A8A907100000000009B504480068044B79
:10CE900003441B68DB6D029309BD0000A8A90710BD
:10CEA0000000000009B504480068044B03441B68F7
:10CEB0005B6C029309BD0000A8A9071030000000B8
:10CEC00009B504480068044B03441B685B6902937E
:10CED00009BD0000A8A907104C00000009B50448CE
:10CEE0000068044B03441B68DB68029309BD000023
:10CEF000A8A907102400000009B504480068044BE5
:10CF000003441B681B69029309BD0000A8A9071010
:10CF10002400000009B504480068044B03441B6862
:10CF20005B69029309BD0000A8A907102400000056
:10CF300009B504480068044B03441B689B690293CD
:10CF400009BD0000A8A907102400000009B5044885
:10CF50000068044B03441B68DB69029309BD0000B1
:10CF6000A8A907102400000009B504480068044B74
:10CF700003441B681B6A029309BD0000A8A907109F
:10CF80002400000009B504480068044B03441B68F2
:10CF90009B6A029309BD0000A8A9071024000000A5
:10CFA00009B504480068044B03441B681B6C0293DA
:10CFB00009BD0000A8A907102400000009B5044815
:10CFC0000068044B03441B68DB68029309BD000042
:10CFD000A8A907101000000009B504480068044B18
:10CFE00003441B689B69029309BD0000A8A90710B0
:10CFF0001000000009B504480068044B03441B6896
:10D00000DB69029309BD0000A8A907101000000009
:10D0100009B504480068044B03441B681B6A02936B
:10D0200009BD0000A8A907101000000009B50448B8
:10D030000068044B03441B685B6A029309BD00004F
:10D04000A8A907101000000009B504480068044BA7
:10D0500003441B689B6A029309BD0000A8A907103E
:10D060001000000009B504480068044B03441B6825
:10D07000DB6A029309BD0000A8A907101000000098
:10D0800009B504480068044B03441B681B6B0293FA
:10D0900009BD0000A8A907101000000009B5044848
:10D0A0000068044B03441B685B6B029309BD0000DE
:10D0B000A8A907101000000009B504480068044B37
:10D0C00003441B681B6C029309BD0000A8A907104C
:10D0D0001000000009B504480068044B03441B68B5
:10D0E0001B68029309BD0000A8A9071018000000E2
:10D0F00009B504480068044B03441B689B6802930D
:10D1000009BD0000A8A907101800000009B50448CF
:10D110000068044B03441B68DB68029309BD0000F0
:10D12000A8A907101800000009B504480068044BBE
:10D1300003441B681B69029309BD0000A8A90710DE
:10D140001800000009B504480068044B03441B683C
:10D150005B69029309BD0000A8A907101800000030
:10D1600009B504480068044B03441B68DB6902935B
:10D1700009BD0000A8A907101800000009B504485F
:10D180000068044B03441B681B6A029309BD00003E
:10D19000A8A907101800000009B504480068044B4E
:10D1A00003441B685B6A029309BD0000A8A907102D
:10D1B0001800000009B504480068044B03441B68CC
:10D1C0001B6C029309BD0000A8A9071018000000FD
:10D1D00009B504480068044B03441B685B6C029368
:10D1E00009BD0000A8A907101800000009B50448EF
:10D1F0000068044B03441B681B68029309BD0000D0
:10D20000A8A907103400000009B504480068044BC1
:10D2100003441B685B68029309BD0000A8A90710BE
:10D220003400000009B504480068044B03441B683F
:10D230001B69029309BD0000A8A907103400000073
:10D2400009B504480068044B03441B685B690293FA
:10D2500009BD0000A8A907103400000009B5044862
:10D260000068044B03441B689B69029309BD0000DE
:10D27000A8A907103400000009B504480068044B51
:10D2800003441B68DB69029309BD0000A8A90710CD
:10D290003400000009B504480068044B03441B68CF
:10D2A0001B6A029309BD0000A8A907103400000002
:10D2B00009B504480068044B03441B689B6A029349
:10D2C00009BD0000A8A907103400000009B50448F2
:10D2D0000068044B03441B685B6B029309BD0000AC
:10D2E000A8A907104800000009B504480068044BCD
:10D2F00003441B685B68029309BD0000A8A90710DE
:10D300000800000009B504480068044B03441B688A
:10D310005B69029309BD0000A8A90710080000007E
:10D3200009B504480068044B03441B68D3F88830EF
:10D33000029309BDA8A907100800000009B5044818
:10D340000068044B03441B68D3F89430029309BD72
:10D35000A8A907100800000009B504480068044B9C
:10D3600003441B685B68029309BD0000A8A907106D
:10D370002800000009B504480068044B03441B68FA
:10D380009B68029309BD0000A8A9071028000000AF
:10D3900009B504480068044B03441B68DB6802932A
:10D3A00009BD0000A8A907102800000009B504481D
:10D3B0000068044B03441B681B69029309BD00000D
:10D3C000A8A907102800000009B504480068044B0C
:10D3D00003441B685B69029309BD0000A8A90710FC
:10D3E0002800000009B504480068044B03441B688A
:10D3F0009B69029309BD0000A8A90710280000003E
:10D4000009B504480068044B03441B68DB690293B8
:10D4100009BD0000A8A907102800000009B50448AC
:10D420000068044B03441B681B6A029309BD00009B
:10D43000A8A907102800000009B504480068044B9B
:10D4400003441B681B6B029309BD0000A8A90710C9
:10D450002800000009B504480068044B03441B6819
:10D460005B6B029309BD0000A8A90710280000000B
:10D4700009B504480068044B03441B681B6C029305
:10D4800009BD0000A8A907102800000009B504483C
:10D490000068044B03441B685B6C029309BD0000E9
:10D4A000A8A907102800000009B504480068044B2B
:10D4B00003441B685B6D029309BD0000A8A9071017
:10D4C0002800000009B504480068044B03441B68A9
:10D4D0009B6D029309BD0000A8A907102800000059
:10D4E00009B504480068044B03441B689B68029319
:10D4F00009BD0000A8A907102C00000009B50448C8
:10D500000068044B03441B68DB6B029309BD0000F9
:10D51000A8A907102C00000009B504480068044BB6
:10D5200003441B681B68029309BD0000A8A90710EB
:10D530000400000009B504480068044B03441B685C
:10D540005B68029309BD0000A8A907100400000051
:10D5500009B504480068044B03441B681B6C029324
:10D5600009BD0000A8A907100400000009B504487F
:10D570000068044B03441B685B6C029309BD000008
:10D58000A8A9071004000000002240681146FFF718
:10D5900045BF002240681146FFF75CBF002240688B
:10D5A000FFF74ABF0022406881F00101FFF728BF62
:10D5B000002340681A461946FFF714BF002340684D
:10D5C0001A461946FFF700BF002240681146FFF7D0
:10D5D000EDBE002240681146FFF7CCBE00220221BA
:10D5E0004068FFF7D5BE002340681A46FFF7B4BE77
:10D5F0000322024B5A60024A1A6070478CAE071031
:10D600009CFD3F020021FFF7E3BD0021FFF7D2BDE3
:10D6100010B5044608462170FFF7A2FD00232046FE
:10D62000636010BD13B504460078FFF7EEFF58B9EC
:10D6300020784FF6FF710190FFF74CFD019802B082
:10D64000BDE81040FFF7DEBF02B010BD13B50446C1
:10D6500000780191FFF7D9FF019948B9207801902E
:10D66000FFF746FD019802B0BDE81040FFF7CABFC2
:10D6700002B010BD13B5044600780191FFF7C5FF55
:10D68000019948B920780190FFF740FD019802B058
:10D69000BDE81040FFF7B6BF02B010BD30B50024A2
:10D6A000400818601868E5B2884206D90134082C91
:10D6B00002D040081860F5E70725024B5B5D137048
:10D6C00030BD00BFD8FD3F0200232DE9F0410446E4
:10D6D00088B000780E4617460293FFF796FF05467E
:10D6E00000BB0146142203A894F8008000F005FE58
:10D6F0000B232A46404603A9ADF80C30FFF74CFD3A
:10D7000007FB06F1049802AB0DF107028DF80750F4
:10D71000FFF7C4FF20789DF80710FFF705FD20787C
:10D72000FFF770FF029808B0BDE8F08138B50446F5
:10D7300000780D46FFF769FF0346D0B9616899B1DB
:10D740000C4A12F8010B854202D00133082BF8D1A4
:10D750000133DBB201222046D940FFF7B5FF207824
:10D76000BDE83840FFF74EBF29462078FFF7DCFCC4
:10D77000F5E738BDD8FD3F0208B50078FFF7E2FCB9
:10D78000C0B208BD02220020044B1A60044B054AB7
:10D79000C3E900009A60FFF7A7BD00BFA0AE071065
:10D7A00094AE07100000FFFF002302480360FFF75C
:10D7B00079BB00BFA4AE0710F8B506460D4600249D
:10D7C0008F18BD420CD0336830469B6815F8011B9A
:10D7D0009847031E01DB1C44F3E7002C08BF1C46DE
:10D7E0002046F8BD13B50446084659B10191FEF72D
:10D7F0005FFC0246204623680199DB6802B0BDE861
:10D800001040184702B010BD03689B6818470023FA
:10D81000012A98BF0A2230B58BB08DF8243009ACAC
:10D820000D46B1FBF2F101FB125303F0FF03092B8C
:10D8300094BF30333733DBB2AA4204F8013DEFD94D
:10D840002146FFF7CFFF0BB030BD10B50446FFF700
:10D850000DFBE060236820465B699847002808DAE2
:10D86000FFF704FBE368C01AA3689842F2D34FF0B5
:10D87000FF3010BD2DE9F04107460C460D468E18CD
:10D88000B542A5EB040807D03846FFF7DEFF031EBC
:10D8900002DB05F8013BF3E74046BDE8F0810000FC
:10D8A000014B024A1A607047A8AE0710E0FD3F0224
:10D8B000024B1A68024B1A60704700BFBCAD0710DC
:10D8C000ACAE07100021FFF71DBD00000022014B88
:10D8D0009A607047B0AE0710014B1860704700BFE8
:10D8E000C0AD071008B50F4B43B100F077F90368DE
:10D8F0001B699847002801DD00E000BF0A4B43B1D7
:10D9000000F016FC03681B699847002801DD00E061
:10D9100000BF064B0BB100F051FC054B0BB100F002
:10D9200083FC08BD000000000000000000000000B3
:10D930000000000008B5FFF7D5FFFFF797FA014B8D
:10D94000186008BD4CAF07100548064A08B5121A02
:10D95000054900F0C5FC054B054A1A6008BD00BF2B
:10D9600000B4071004B40710B4F85F0800B407103F
:10D970001E1C279A002307B51A466FF07701009303
:10D98000FFF7DCFC03B05DF804FB000007B543883B
:10D990000A2B08D0502B0BD1094B1B684BB103B09D
:10D9A0005DF804EB1847FFF7E5FF03B05DF804FBF3
:10D9B00000231A466FF077010093FFF7BFFCF4E7EE
:10D9C000C4AE0710002110B51148FFF7CFFD114B71
:10D9D0001A68114B9A420CBF012200220F4B1A7099
:10D9E00001D0FFF7B1FFFFF725FA044600F08EFCE7
:10D9F0000B4B13B1204600E000BF00210848FFF7A1
:10DA00007DFDBDE8104000210648FFF789BC00BF3E
:10DA1000A1E43F0200B407101E1C279AC0AE0710F5
:10DA20000000000055E53F02704710B5044618217C
:10DA3000FEF765FB204610BDF0B5037D0E46062BB4
:10DA40004FF000048DB000F1040712D000F108057A
:10DA500015F8011D0A223046FFF7D9FEAF420444F3
:10DA600019D0002CF4D02E213046FFF7CDFE04440F
:10DA7000EEE72F236A4639460A208DF80040FFF76B
:10DA80001FFA6846FEF714FB3368024669463046C3
:10DA9000DB689847044620460DB0F0BD10B504463B
:10DAA000044B1122002140F8043B00F026FC2046E4
:10DAB00010BD00BF08FE3F020346074A10B543F8F9
:10DAC000042B01F1100251F8044B914243F8044B2E
:10DAD000F9D10A781A7010BD08FE3F0210B59DF802
:10DAE000084044EA032343EA0242042342EA016174
:10DAF0004160037510BD000007B5064B0360CB788D
:10DB000000938B784A780978FFF7E8FF03B05DF857
:10DB100004FB00BF08FE3F02417470477047704726
:10DB200008B50021007CFFF799FB40EAE07008BDD2
:10DB300008B50121007CFFF791FB40EAE07008BDC9
:10DB400008B5007CFFF77CFB20EAE07008BD08B553
:10DB5000007CFFF767FB20EAE07008BD13B50446C0
:10DB6000007C0191FFF76CFB0028019901DC607CCF
:10DB700020B1207CFFF780FB20EAE07002B010BDEE
:10DB8000007CFFF787BB10B504461421FEF7B7FAF7
:10DB9000204610BD10B54FF47A73044608460021A4
:10DBA000C4E90113044B20742360012311466374FC
:10DBB000FFF71CFB204610BD1CFE3F020022007C2C
:10DBC000FFF722BB007CFFF773BB10B5044614229D
:10DBD000002100F092FB204610BD000010B588B077
:10DBE00003A8FFF7F2FF0C4CD4E88F1F11F00101DE
:10DBF0000FD120460191FEF791FA019948B103AA8D
:10DC00000648FFF7C7FF2046FEF78DFA044800F0EC
:10DC100061FB024808B010BDC8AE0710CCAE0710BB
:10DC2000E5E63F0270474174704708B5007CFFF796
:10DC3000A9F920EAE07008BD08B5007CFFF75CF99F
:10DC400020EAE07008BD08B5007CFFF771F940EAF2
:10DC5000E07008BD08B5007CFFF75CF940EAE070B1
:10DC600008BD007CFFF772B937B5457C04462DB17D
:10DC7000207C03B0BDE83040FFF730B9007C019153
:10DC8000FFF780F900280199F2DC284603B030BD87
:10DC900010B504461421FEF732FA204610BD0000EC
:10DCA00010B54FF47A730446084611460022C4E9C1
:10DCB0000123044B2074236001236374FFF770F980
:10DCC000204610BD50FE3F02007CFFF74DB9704763
:10DCD000F8B5064615460C468F18BC4206D0336888
:10DCE00030469B6814F8011B9847F6E72846F8BDB4
:10DCF0000022007CFFF78CB90021007CFFF796B969
:10DD00000021007CFFF7A0B90021007CFFF7AAB931
:10DD10000021007CFFF7B4B910B504461421FEF7CA
:10DD2000EEF9204610BD000038B5044615464FF404
:10DD30007A730022C4E90123094B08462174236049
:10DD40002946FFF7B9F9BF3008D16B69DB0705D564
:10DD50006868FFF7EFFBE868FFF7ECFB204638BD8B
:10DD600084FE3F020023007C1A461946FFF726B9BD
:10DD70000022007CFFF730B9C9B2FFF7F9BF0022DB
:10DD8000007CFFF737B90121FFF7F9BFFF2100221F
:10DD9000044B0120C3E9001264211A61C3E90201A6
:10DDA000704700BFE0AE0710002240681146FFF741
:10DDB000FDBA002240681146FFF730BB00224068E0
:10DDC0001146FFF747BB00224068FFF735BB002232
:10DDD000406881F00101FFF713BB002340681A4639
:10DDE0001946FFF7FFBA002340681A461946FFF7A5
:10DDF000EBBA002240681146FFF7BCBA00220221AC
:10DE00004068FFF7C5BA002340681A46FFF7A4BA76
:10DE10000422024B5A60024A1A607047F4AE07109F
:10DE2000B0FE3F02002340681A46FFF795BA002271
:10DE300002214068FFF7ACBA002240681146FFF7A4
:10DE400099BA002240681146FFF7B0BA0023406833
:10DE50001A461946FFF7B8BA002340681A46194611
:10DE6000FFF7C0BA00214068FFF702BB00214068FD
:10DE7000FFF70CBB0022406881F00101FFF7C0BA38
:10DE800000224068FFF7D8BA002240681146FFF729
:10DE9000E1BA002240681146FFF7C0BA002140688D
:10DEA000FFF710BB2DE9F04395B014460D46074629
:10DEB000FFF7F4FD00211C220DA8009100F01DFACF
:10DEC000402320460C9300216B460CAAFEF77AFFF4
:10DED000044600284BD1024601216868FFF766FA24
:10DEE0000221804622466868FFF760FA2146814693
:10DEF000009E002E3BD0002939D17368022B03D03D
:10DF00000A2B11D0F669F4E7B8F1000FFAD0716965
:10DF100006A804313C1D07ADFFF7EEFD0FCD0FC481
:10DF20002B6841462370EDE7B9F1000FEAD01022CB
:10DF300001A8746900F0E1F9062301AD8DF81430F1
:10DF400004F1080318342A4618685968083303C2D4
:10DF5000A3421546F7D101A906A83C1D07ADFFF75E
:10DF6000ABFD0FCD0FC42B6849462370CAE700985C
:10DF7000FEF71AFF384615B0BDE8F08303380228D3
:10DF80009ABF024B53F8200001487047ECFE3F0255
:10DF9000FCAE071008B500224068FFF785FABDE81F
:10DFA0000840FFF7EBBF0000024B034A1A60002253
:10DFB0005A607047FCAE071000FF3F021B2837B5C0
:10DFC000044602D9002003B030BDA0F10F03022B9C
:10DFD0000BD9012821D800F057F90021007CFFF768
:10DFE0005DF880F00100C0B2EDE7114DD5E88F1F5C
:10DFF00011F001010BD128460191FEF78FF801992C
:10E0000028B10C48FFF704FB2846FEF78CF8094BB3
:10E010001878FFF7B3F80028D4D1083C012C05D8B4
:10E0200000F086F8007CFEF79FFFDAE70120CAE7E0
:10E0300080AE071084AE07101B2838B504460D4685
:10E040000AD8FF2908D0FFF7B9FF28B12946204692
:10E05000BDE83840FEF7C4BE38BD38B504460D46AD
:10E06000FEF7CCFEFF2810D0062804D84D2323FA53
:10E0700000F0C30709D42046FFF7A0FF28B12946C6
:10E080002046BDE83840FEF7C7BE38BD2DE9F04157
:10E0900090461F46072406460D46C4F10701B8F115
:10E0A000000F12D147FA01F1304601F00101FFF7EC
:10E0B000D4FF01212846FFF7D0FF00212846FFF7B3
:10E0C000CCFF013CE9D2BDE8F08147FA04F1EBE76F
:10E0D0007047000038B5142504462A46002100F098
:10E0E0000CF925804025074928462581258200F026
:10E0F000EFF804496060284600F0EAF8E060204646
:10E1000038BD00BF3CFF3F027047704710B5044662
:10E11000FFF7E0FF204610BD10B50446FFF7DAFF19
:10E12000204610BD10B50446FFF7D4FF204610BDB1
:10E1300030B50E4D87B0D5E88F1F11F0010411D115
:10E140002846FDF7EBFF68B101A8FFF7DFFF214686
:10E1500001AA0748FFF7A4FD2846FDF7E4FF05489C
:10E1600000F0B8F8024807B030BD00BF04AF071098
:10E1700010AF071099EC3F0210B50D4C86B0D4E8F3
:10E180008F3FDB0711D42046FDF7C8FF68B101A817
:10E19000FFF7C2FF012101AA0648FFF781FD2046D3
:10E1A000FDF7C1FF044800F095F8024806B010BD25
:10E1B00008AF071024AF0710D3EC3F0210B5FFF7EC
:10E1C000DBFF074B044653B1FFF77EFD38B12368F0
:10E1D00020461B699847002801DD00E000BF10BD04
:10E1E0000000000010B50D4C86B0D4E88F3FDB076F
:10E1F00011D42046FDF792FF68B101A8FFF792FF06
:10E20000022101AA0648FFF74BFD2046FDF78BFFD0
:10E21000044800F05FF8024806B010BD0CAF0710CC
:10E2200038AF0710D1EC3F0210B5FFF7DBFF074B0B
:10E23000044653B1FFF748FD38B1236820461B69F7
:10E240009847002801DD00E000BF10BD000000007D
:10E250007047000038B50A4B0446036001230949A2
:10E260004361202000F034F82025606005492846ED
:10E27000A56000F02DF8C4E90305204638BD00BFB5
:10E28000180001003CFF3F0230B50E4D87B0D5E8C5
:10E290008F1F11F0010411D12846FDF73FFF68B12F
:10E2A0006846FFF7D7FF6A4621460748FFF73CFD5F
:10E2B0002846FDF738FF054800F00CF8024807B083
:10E2C00030BD00BF50AF071054AF071019EE3F022A
:10E2D000FDF713BF002301461A46184600F044B864
:10E2E0000A44431E914200D1704710B511F8014B0A
:10E2F000914203F8014FF9D110BD02440346934205
:10E3000000D1704703F8011BF9E7000038B5104B46
:10E3100004461D68AB6BB3B91820FFF7FDF8024641
:10E32000A86320B90B4B42210B48FFF711F90B49A9
:10E330000B4BC0E900130B4B002183600B2383813F
:10E340000120C2E90401AB6B00221C615A6138BD97
:10E35000C0AD07103DFF3F0254FF3F020E33CDAB6F
:10E3600034126DE6ECDE05002DE9F843DFF8BC80E1
:10E3700006461F460D46D8F80000914600F058F8B2
:10E38000264B1C6834B9264C1C60264B13B11B6805
:10E39000C4F8883063681F2B07DDD8F8000000F050
:10E3A00049F84FF0FF30BDE8F8835EB3D4F8880039
:10E3B00088B91D4B23B9D8F8000000F03AF8F0E70F
:10E3C0004FF48470FFF7A8F80028F4D00023C0E9C8
:10E3D0004033C4F8880063680122022E40F823907D
:10E3E00002FA03F200EB8301D0F8003143EA0203A2
:10E3F000C0F80031C1F8807002BFD0F80431134377
:10E40000C0F804316368D8F800005A1C0233626017
:10E4100044F8235000F00EF80020C4E7F4AF0710D2
:10E4200068AF071000000000E1E03F0224AE0710D3
:10E43000704770477047000089CC3F02B1CC3F0263
:10E44000B5CC3F020000000043616C6C206F6E2071
:10E4500070757265207669727475616C00000000D9
:10E4600000000000000000000000000000000000AC
:10E47000000000000000000000000000000000009C
:10E48000000000000000000000000000000000008C
:10E49000000000000000000000000000000000007C
:10E4A000000000000000000000000000000000006C
:10E4B000000000000000000000000000000000005C
:10E4C000000000000000000000000000000000004C
:10E4D000000000000FF0000000000000000000003D
:10E4E000000000007FFE00000000000000000000AF
:10E4F00000000001FFFF800000000000000000009D
:10E5000000000003F81FC000000000000000000031
:10E5100000000007C003E000000000000000000051
:10E520000000000F8001F00000000000000000006B
:10E530000000001E00007800000000000000000045
:10E540000000003C00003C00000000000000000053
:10E550000000007800001E00000000000000000025
:10E560000000007000001E0000000000000000001D
:10E57000000000F000000F0000000000000000009C
:10E58000000000E0000007000000000000000000A4
:10E59000000001E000000780000000000000000013
:10E5A000000001C000000380000000000000000027
:10E5B000000003C0000003C00000000000000000D5
:10E5C00000000380000001C0000000000000000007
:10E5D00000000380000001C00000000000000000F7
:10E5E00000000780000001E00000000000000000C3
:10E5F00000000700000000E0000000000000000034
:10E6000000000700000000E0000000000000000023
:10E6100000000700000000E0000000000000000013
:10E6200000000F00000000F00000000000000000EB
:10E6300000000E00000000F00000000000000000DC
:10E6400000000E000000007000000000000000004C
:10E6500000000E000000007000000000000000003C
:10E6600000000E000000007000000000000000002C
:10E6700000000E000000007000000000000000001C
:10E6800000000E000000007000000000000000000C
:10E6900000000E0007E00070000000000000000015
:10E6A00000000E001FF800700000000000000000D5
:10E6B00000000E007FFC00F00000000000000000E1
:10E6C00000000F007FFE00E00000000000000000DE
:10E6D00000000700FFFF00E0000000000000000055
:10E6E00000000701FFFF80E00000000000000000C4
:10E6F00000000701FFFF80E00000000000000000B4
:10E7000000000783FFFFC1E00000000000000000E0
:10E7100000000383FFFFC1C00000000000000000F4
:10E7200000000383FFFFC1C00000000000000000E4
:10E73000000003C3FFFFC3C0000000000000000092
:10E74000000001C3FFFFC3800000000000000000C4
:10E75000000001E3FFFFC780000000000000000090
:10E76000000000E3FFFFC700000000000000000001
:10E77000000000F3FFFFCF000000000000000000D9
:10E7800000000079FFFF9E00000000000000000074
:10E7900000000079FFFF9E00000000000000000064
:10E7A0000000003CFE7F3C00000000000000000074
:10E7B0000000001EFC3FF800000000000000000008
:10E7C0000000000FF81FF000000000000000000033
:10E7D00000000007F81FE00000000000000000003B
:10E7E00000000003FC3FC00000000000000000002B
:10E7F00000000000FFFF000000000000000000001B
:10E80000000000003FFC00000000000000000000CD
:10E81000000000000FF000000000000000000000F9
:10E8200000000000000000000000000000000000E8
:10E8300000000000000000000000000000000000D8
:10E8400000000000000000000000000000000000C8
:10E8500000000000000000000000000000000000B8
:10E8600000000000000000000000000000000000A8
:10E870000000000000000000000000000000000098
:10E880000000000000000000000000000000000088
:10E890000000000000000000000000000000000078
:10E8A0000000000000000000000000000000000068
:10E8B0000000000000000000000000000000000058
:10E8C0000000000000000000000000000000000048
:10E8D0000000000000000000000000000000000038
:10E8E0000000000000000000000000000000000028
:10E8F0000000000000000000000000000000000018
:10E900000000000000000000000000000000000007
:10E9100000000000000000000000000000000000F7
:10E9200000000000000000000000000000000000E7
:10E9300000000000000000000000000000000000D7
:10E9400000000000000000000000000000000000C7
:10E9500000000000000000000000000000000000B7
:10E9600000000000000000000000000000000000A7
:10E97000180000000000000000300000000000004F
:10E980003C000000000000000078000000000000D3
:10E990003E0000000000000000F800000000000041
:10E9A0003F0000000000000001F000000000000037
:10E9B0001F8000000000000003E0000000000000D5
:10E9C0000FC000000000000007E000000000000091
:10E9D00007E00000000000000FC000000000000081
:10E9E0000FF00000000000001F8000000000000089
:10E9F0001FF80000000000007F8000000000000001
:10EA00003FFC000000000000FFC00000000000000C
:10EA10007F7F000000000001FFE000000000000018
:10EA2000FC1F800000000003F3F000000000000164
:10EA3000F80FE0000000000FE1F800000000000304
:10EA4000F007F0000000001FC0FC00000000000301
:10EA5000E007FC000000007F007F000000000007CE
:10EA6000C00FFF00000001FF003F00000000000792
:10EA7000800FFFC0000007FF001F800000000001A2
:10EA8000001F9FF000003FFF800F8000000000008B
:10EA9000001F07FE0001FFCF8007000000000000FC
:10EAA000003E01FFF83FFF07C0000000000000002B
:10EAB000003E00FFFFFFFC07E00000000000000038
:10EAC000007C00FFFFFFFC03E000000000000000EE
:10EAD00000FC00F1FFFF3C01F0000000000000001E
:10EAE00000F800F007C03C01F0000000000000004A
:10EAF00001F000F007803C00F8000000000000007A
:10EB000001F001F007803C00FC0000000000000064
:10EB100000E001E007801E007C0000000000000013
:10EB2000000001E007801E007C00000000000000E3
:10EB3000000001E007801E00380000000000000017
:10EB4000000001E007801E0000000000000000003F
:10EB5000000001E007801E0000000000000000002F
:10EB6000000003C007800F0000000000000000004C
:10EB7000000003C007800F0000000000000000003C
:10EB8000000003C007800F0000000000000000002C
:10EB90000000008007800F0000000000000000005F
:10EBA00000000000078006000000000000000000D8
:10EBB00000000000078000000000000000000000CE
:10EBC00000000000078000000000000000000000BE
:10EBD00000000000038000000000000000000000B2
:10EBE0000000000000000000000000000000000025
:10EBF0000000000000000000000000000000000015
:10EC00000000000000000000000000000000000004
:10EC100000000000000000000000000000000000F4
:10EC200000000000000000000000000000000000E4
:10EC300000000000000000000000000000000000D4
:10EC400000000000000000000000000000000000C4
:10EC500000000000000000000000000000000000B4
:10EC6000000000000000000039D13F02C9D13F027E
:10EC7000FDD83F0281E33F023DD13F0281D53F02F3
:10EC8000C1CF3F024DCE3F023FD63F02DDD63F020D
:10EC900013D73F022FD73F0200000000003E5B4F1A
:10ECA0005B3E3E6B4F6B3E1C3E7C3E1C183C7E3CEC
:10ECB000181C577D571C1C5E7F5E1C00183C1800FA
:10ECC000FFE7C3E7FF0018241800FFE7DBE7FF308A
:10ECD000483A060E2629792926407F050507407FF8
:10ECE00005253F5A3CE73C5A7F3E1C1C08081C1C6B
:10ECF0003E7F14227F22145F5F005F5F06097F0161
:10ED00007F006689956A606060606094A2FFA2944B
:10ED100008047E040810207E201008082A1C080819
:10ED20001C2A08081E101010100C1E0C1E0C303867
:10ED30003E3830060E3E0E06000000000000005F68
:10ED400000000007000700147F147F14242A7F2A84
:10ED50001223130864623649562050000807030046
:10ED6000001C2241000041221C002A1C7F1C2A0892
:10ED7000083E0808008070300008080808080000F5
:10ED800060600020100804023E5149453E00427F69
:10ED9000400072494949462141494D331814127FB8
:10EDA0001027454545393C4A494931412111090758
:10EDB0003649494936464949291E000014000000D9
:10EDC00040340000000814224114141414140041AB
:10EDD00022140802015909063E415D594E7C121168
:10EDE000127C7F494949363E414141227F414141A0
:10EDF0003E7F494949417F090909013E414151731B
:10EE00007F0808087F00417F41002040413F017F8B
:10EE1000081422417F404040407F021C027F7F0453
:10EE200008107F3E4141413E7F090909063E41519C
:10EE3000215E7F09192946264949493203017F018C
:10EE4000033F4040403F1F2040201F3F4038403F8D
:10EE5000631408146303047804036159494D4300A3
:10EE60007F4141410204081020004141417F0402DA
:10EE70000102044040404040000307080020545471
:10EE800078407F284444383844444428384444284F
:10EE90007F385454541800087E090218A4A49C78A2
:10EEA0007F0804047800447D40002040403D007FFE
:10EEB0001028440000417F40007C047804787C08DE
:10EEC0000404783844444438FC18242418182424B2
:10EED00018FC7C08040408485454542404043F4497
:10EEE000243C4040207C1C2040201C3C4030403CC6
:10EEF00044281028444C9090907C4464544C440026
:10EF00000836410000007700000041360800020189
:10EF10000204023C2623263C1EA1A161123A404075
:10EF2000207A3854545559215555794121545478F3
:10EF300041215554784020545579400C1E5272128C
:10EF40003955555559395454545939555454580014
:10EF500000457C410002457D420001457C40F0298E
:10EF60002429F0F0282528F07C54554500205454DD
:10EF70007C547C0A097F4932494949323248484821
:10EF800032324A4848303A4141217A3A4240207868
:10EF9000009DA0A07D39444444393D4040403D3C63
:10EFA00024FF2424487E4943662B2FFC2F2BFF0986
:10EFB00029F620C0887E090320545479410000447A
:10EFC0007D413048484A32384040227A007A0A0A65
:10EFD000727D0D19317D2629292F282629292926D8
:10EFE00030484D4020380808080808080808382F1D
:10EFF00010C8ACBA2F102834FA00007B00000814A7
:10F000002A142222142A1408AA005500AAAA55AAD2
:10F0100055AA000000FF00101010FF00141414FF88
:10F02000001010FF00FF1010F010F0141414FC007A
:10F030001414F700FF0000FF00FF1414F404FC1484
:10F040001417101F10101F101F1414141F0010107D
:10F0500010F0000000001F101010101F10101010F2
:10F06000F010000000FF101010101010101010FF12
:10F0700010000000FF140000FF00FF00001F101729
:10F080000000FC04F414141710171414F404F40012
:10F0900000FF00F714141414141414F700F71414D8
:10F0A00014171410101F101F141414F4141010F05F
:10F0B00010F000001F101F0000001F14000000FCD3
:10F0C000140000F010F01010FF10FF141414FF14BF
:10F0D0001010101F00000000F010FFFFFFFFFFF0F6
:10F0E000F0F0F0F0FFFFFF0000000000FFFF0F0F47
:10F0F0000F0F0F38444438447C2A2A3E147E020203
:10F100000606027E027E0263554941633844443C50
:10F1100004407E201E2006027E020299A5E7A599E2
:10F120001C2A492A1C4C7201724C304A4D4D303019
:10F1300048784830BC625A463D3E494949007E0104
:10F1400001017E2A2A2A2A2A44445F444440514A23
:10F15000444040444A51400000FF0103E080FF006A
:10F160000008086B6B083612362436060F090F06A6
:10F17000000018180000001010003040FF010100CE
:10F180001F01011E00191D1712003C3C3C3C0000F1
:10F19000000000000000000000000000000000006F
:10F1A00000000000FDD83F0281E33F02CDCC3F02CA
:10F1B00081D53F02A7D63F02C3D63F023FD63F02CA
:10F1C000DDD63F0213D73F022FD73F0200000000D9
:10F1D00000000000AFE13F02A5E13F029BE13F02DA
:10F1E00091E13F0285E13F0279E13F022DEA3F02D2
:10F1F00035EA3F026DE13F0265E13F025BE13F021C
:10F2000051E13F025DEB3F0265EA3F026DEA3F02DA
:10F2100000081018202830386170700025592D25FD
:10F220006D2D25645425483A254D3A2553257A00FD
:10F2300061736374696D65000000000000000000E8
:10F2400001E63F02F1E53F02F3E53F020000000066
:10F2500000000000E7E63F024FE73F0225E73F02DC
:10F2600081E33F0217E73F02E9E63F02F9E63F028A
:10F2700049E73F023DE43F0209E73F02E1E63F0282
:10F280000000000000000000EDE73F0259E83F02E7
:10F2900031E83F0281E33F0201E83F021DE83F02FF
:10F2A0000FE83F022BE83F023DE43F02EFE73F0259
:10F2B000F3E73F02000000000000000097E83F0273
:10F2C000E1E83F02B9E83F0299E83F02C1E83F02A6
:10F2D000C9E83F02D1E83F02D9E83F023DE43F02DE
:10F2E0000000000000000000CFE93F02C5E93F0236
:10F2F000BBE93F0271E93F02AFE93F02A3E93F02E8
:10F300002DEA3F0235EA3F0297E93F028FE93F02CB
:10F3100085E93F027BE93F025DEB3F0265EA3F0280
:10F320006DEA3F028CAE0710F4AE0710FCAE07107A
:10F330000000000000000000EDE93F02F7E93F0295
:10F3400001EA3F020BEA3F0215EA3F0221EA3F02CF
:10F350002DEA3F0235EA3F023DEA3F0249EA3F0219
:10F3600051EA3F025BEA3F025DEB3F0265EA3F0282
:10F370006DEA3F02005245454E54206D616C6C6F42
:10F380006320737563636565646564002F6D6E74D7
:10F390002F776F726B73706163652F776F726B730A
:10F3A000706163652F4743432D31302D706970655F
:10F3B0006C696E652F6A656E6B696E732D4743438A
:10F3C0002D31302D706970656C696E652D34385F34
:10F3D00032303230313132345F31363036313830DC
:10F3E0003634312F7372632F6E65776C69622F6EBE
:10F3F00065776C69622F6C6962632F7374646C69E2
:10F40000622F72616E642E630000000011CE3F0215
:10F41000B9E13F024DE33F0271E33F0269E43F027D
:10F4200079E43F0295E43F0255E93F02D9E93F0202
:04F4300071EB3F023B
:10F4340000000002000103070F1F3F7F0080C0E0AF
:10F44400F0F8FCFE000000000000000000000000D6
:10F4540000000000000000000000000000000000A8
:10F464000000000000000000000000000000000098
:10F474000000000000000000000000000000000088
:10F4840000000080808000000000000000000000F8
:10F4940000000000008080C0C000000000000000E8
:10F4A4000000000000000000000000000000000058
:10F4B4000000000000000000000000000000000048
:10F4C4000000000000000000000000000000000038
:10F4D400000000000000000080C0E0F0F8FCF8E04C
:10F4E4000000000000000000000000000000000018
:10F4F4000080808080800080800000000080808008
:10F50400808000FFFFFF00000000808080800000FA
:10F514008080000080FFFF808000808000808080E9
:10F52400800080800000000000808000008C8E84B9
:10F53400000080F8F8F880000000000000000000DF
:10F5440000000000F0F0F0F0F0F0F0F0F0F0F0F077
:10F55400E0E0C08000E0FCFEFFFFFF7FFFFFFFFF55
:10F56400FF0000000000000000000000000000FE9A
:10F57400FFC70101010183FFFF00007CFEC70101F9
:10F58400010183FFFFFF0038FEC78301010183C728
:10F59400FFFF000001FFFF010100FFFF0701010160
:10F5A40000007FFF80000000FFFF7F0000FFFFFFDF
:10F5B400000001FFFFFF0100000000000000000048
:10F5C40000000000030F3F7F7FFFFFFFFFFFFFFFEF
:10F5D400E7C7C78F8F9FBFFFFFC3C0F0FFFFFFFFC9
:10F5E400FFFCFCFCFCFCFCFCFCF8F8F0F0E0C000C8
:10F5F40001030303030301030300000000010303E9
:10F6040003030101030100000001030303030101DB
:10F6140003030000000303000000030300000000D4
:10F6240000000001030303030301000000010301C0
:10F6340000000003030100000000000000000000BF
:10F644000000000000000080C0E0F0F9FFFFFFFFB1
:10F65400FF3F1F0F87C7F7FFFF1F1F3DFCF8F8F898
:10F66400F87C7DFFFFFFFFFFFFFFFF7F3F0F0700D9
:10F674003030000000000000000000000000000026
:10F684000000000000000000FEFEFC00000000007E
:10F694000000000000000000000000000000000066
:10F6A40000E0C00000000000000000000000303056
:10F6B4000000000000000000000000000000000046
:10F6C4000000000000C0FEFFFFFFFFFFFFFFFFFF81
:10F6D4007F7F3F1F0F071F7FFFFFF8F8FFFFFFFF2C
:10F6E400FFFEF8E000000001000000000000000040
:10F6F400FEFE000000FCFEFC0C06060EFCF80000FA
:10F70400F0F81C0E0606060CFFFFFF0000FEFE00CC
:10F71400000000FCFEFC00183C7E66E6CE8400007F
:10F7240006FFFF0606FCFEFC0C0606060000FEFEB5
:10F734000000C0F8FC4E4646464E7C7840183C76A5
:10F74400E6CECC80000000000000000000000000B5
:10F75400000000000000000001070F1F1F3F3F3F93
:10F764003F1F0F0300000000000000000000000025
:10F774000F0F0000000F0F0F000000000F0F00001C
:10F7840003070E0C18180C060F0F0F0000010F0EC4
:10F794000C180C0F070100040E0C180C0F070000C6
:10F7A400000F0F00000F0F0F0000000000000F0FEC
:10F7B40000000007070C0C181C0C060600040E0CB5
:10F7C400180C0F07000000000000000000000000FB
:10F7D4000000000000000000000000000000000025
:10F7E4000000000000000000000000000000000015
:10F7F4000000000000000000000000000000000005
:10F8040000000000000000000000000000000000F4
:10F8140000000000000000000000000000000000E4
:10F8240000000000000000000000000000000000D4
:10F8340000000000000000000000000000000000C4
:10F8440000000000F8FD3F02C4AD071000000000F6
:10F8540000000000000000000000000000000000A4
:10F864000000000000000000000000000000000094
:10F874000000000000000000000000000000000084
:10F884000000000000000000000000000000000074
:10F894000000000000000000000000000000000064
:10F8A400000000000000000000000000F8AF071096
:04F8B4000000000050
:10FFBE000200100000C05F08A8C05F0870CC3F02AE
:10FFCE0001000A00FFFFFFFFFFFF00000102030414
:10FFDE0005060708090A0B0C0D0E0F10111213144B
:0EFFEE0015161718191A1B1C1D1E1F203E0089
:04FFFC0078563412ED
:04000005085FC018B8
:00000001FF
