:02000004085F93
:10D0000000D05F08FCFF5F0800000600200005015B
:08D0100004010D1700000000EF
:10D018001348144908B5884205D0134A824202D001
:10D02800124B121A98471248124A0021124B121A30
:10D03800984712481249884205D0124A824202D0C3
:10D048000A4B121A984710481049884205D0104ACE
:10D05800824202D0054B121A9847014808BD00BF0A
:10D06800D8AD071018F05F0848AE07102D0D111045
:10D0780048AE0710FCAF0710A10E111088E03F0260
:10D08800A8D05F0890E03F0290E03F02B0D05F0870
:0CD09800F8FF3F0219D05F080000000004
:08D0A8009CD05F0810FD3F025F
:10D0B000034613F8012B002AFBD1181A01387047D8
:10D0C00070B501F00BF90025054E064CA41BA40811
:10D0D000AC4200D170BD56F8043B98470135F7E7E4
:10D0E000D0FF3F02F8FF3F0200F022B808B500F081
:10D0F00061F8BDE8084001F0A9B800F09DBE00F05D
:10D10000A9BE0078B0FA80F040097047012303708F
:10D1100070470EB403B503AB53F8042B0021019301
:10D1200000F0EFFF02B05DF804EB03B070470000C1
:10D1300038B501F0DFF94FF4165101F0CBF90020BA
:10D1400000F06AFB42F210750446002000F064FB18
:10D15000001B61F10001A84271F1000307D201F048
:10D16000C9F901F0BBF910B900F04AFEEDE701F092
:10D17000C1F901F0B3F90121032001F0D7FB00212F
:10D180000B2001F0D3FB0A4800F0D2F80A2108482E
:10D1900000F081FA0024064DA1B2FF22284600F0DB
:10D1A00037FA0134284600F029F90C2CF4D138BDA7
:10D1B00060AE0710F8B50121032001F0C8FB0B2079
:10D1C00001F0F1FB00241C4D1C4E2860346068B94E
:10D1D00000241B4DA1B2FF22284600F019FA0134A9
:10D1E000284600F00BF90C2CF4D123E001F082F971
:10D1F0002A681449FFF78DFF2B684FF47A7033606B
:10D2000000F0ECFF2B68072B11DD01F073F90E49DC
:10D21000FFF77FFF0D4F0A4EA1B23A46304600F0AD
:10D22000F7F90134304600F0E9F80C2CF4D12B6802
:10D23000062BCDDDF8BD00BF7CAE071078AE071021
:10D2400060AE071020FD3F022CFD3F0200FFFF00F3
:10D250000022114B10B5C3E90022A2F58032022052
:10D260009A6000F0D1FC0D4CD4E88F3FDB070AD464
:10D270002046FFF746FF30B10121094800F066FE65
:10D280002046FFF743FFBDE8104002230C21044A6B
:10D29000044800F03EB800BF54AE071048AE071077
:10D2A0004CAE071060AE07100EB44FF0200C0023F8
:10D2B00000B58CB00DAA52F8041BCDE904C3CDE92A
:10D2C00000120392016804AA322000F08FFC0CB017
:10D2D0005DF804EB03B0704738B50446C0680D46EE
:10D2E00008B100F0B7FDA379062B0CBF0420032082
:10D2F00010FB05F080B2A08000F09EFDE06028B138
:10D300000021A28801F075FC658038BDA080608096
:10D31000FBE770B5002504461646C0E903550570C5
:10D3200083710572FFF7D8FF2046666170BD00006B
:10D330002DE9F74F83790446022B4ED143691B78C0
:10D34000012B06D929492A48FFF7AEFF03B0BDE8F3
:10D35000F08F002B0CBF4FF011094FF00409484625
:10D360000CBF1027032701F0A1FA0646384601F04A
:10D370009DFA012E054633D1484601F001FB824655
:10D38000012D30D1384601F0FBFA80464FF0010BF9
:10D39000184B6069CDE9003BFF226B460021007805
:10D3A00000F07CFB5A461449606900F0F5FD3146F7
:10D3B000484601F0BBFA2946384601F0B7FA5E4507
:10D3C00004D148465FFA8AF101F0C1FA012D04D177
:10D3D00038465FFA88F101F0BAFA01232370B5E705
:10D3E0004FF0000ACCE74FF00008CFE733FD3F02D3
:10D3F0009CAE071008000A0008AF2F00C368002B7E
:10D4000000F0FC8070B583790446022B82B040F0B6
:10D41000EF80868806EB4606F036304600F00CFDBD
:10D420000546002800F0EB803246002101F0E1FBC8
:10D430006288002A00F0C780AC4602EBC202E168B5
:10D440002A4491F900300878002BB5BF4FF0D00E78
:10D450004FF0900ED823982310F0400F08BF73466A
:10D4600010F0200F14BF0320022003448CF8783002
:10D4700008780CF1090C00F01003002B15BF4FF0D9
:10D48000690E4FF0490E6D234D2310F0080F08BFB1
:10D4900073468CF870300B78033113F0020F14BF11
:10D4A0003020202013F0010F0CBF4FF0040E4FF07E
:10D4B000060E5B0103F08003034473448CF8713063
:10D4C00011F9020C11F8023C0028B5BF4FF0D00E44
:10D4D0004FF0900ED820982013F0400F08BF7046F0
:10D4E00013F0200F14BF0323022303448CF872307F
:10D4F00011F8020C00F01003002B15BF4FF0690E5D
:10D500004FF0490E6D234D2310F0080F08BF7346EE
:10D510008CF8733011F802EC1EF0020F14BF3020AB
:10D5200020201EF0010F14BF062304234FEA4E1ED5
:10D530000EF0800E86449E448CF874E011F9013C94
:10D5400011F8010C002BB5BF4FF0D00E4FF0900E2C
:10D55000D823982310F0400F08BF734610F0200F17
:10D5600014BF0320022003448CF8753011F8010C1D
:10D5700000F01003002B15BF4FF0690E4FF0490E5D
:10D580006D234D2310F0080F08BF73468CF87630DA
:10D5900011F8010C10F0020F14BF4FF0300E4FF0D5
:10D5A000200E430103F080037344DBB2C00703F194
:10D5B000060E03F104034CBF8CF877E08CF877304B
:10D5C00094457FF43EAF606900F0CAFC0022334608
:10D5D00029466069009200F011FD606900F0C3FC0B
:10D5E000284600F037FC00F0FBF8206102B070BD67
:10D5F00004490548FFF758FE02B070BD7047034963
:10D60000F7E700BF54FD3F029CAE071070FD3F02DC
:10D610004388F0B58B422DD9067AC2F30743C2F393
:10D620000724D5B23EB1734374437543C3F3072354
:10D63000C4F307242D0A90F806C0C768BCF1060F92
:10D640000CBF042603264E43ACF1020CB919BCF101
:10D65000060F1DD8DFE80CF0041C08040F040400BA
:10D66000BC554B708D7005E0FE2B28BFFE23BB55CB
:10D670004D708C70F0BDBB554C708D70037A120EDE
:10D6800013B9D2B2CA70F5E75A43C2F30722F9E7D9
:10D69000BB554C70E6E7037A4A1CD2B2934270B590
:10D6A0001FD0013B13F0FF03C4680CD0FF290FBF4C
:10D6B0004FF6FF71110201F1FF31B1FBF3F30CBF23
:10D6C000B1FBF3F39BB225468688291B89B28E42B3
:10D6D00006D929785943C1F3072105F8011BF3E75F
:10D6E000027270BD09B504480068044B03441B680E
:10D6F0009B68029309BD0000D8AD071050000000E0
:10D7000009B504480068044B03441B68DB680293B6
:10D7100009BD0000D8AD07105000000009B504484D
:10D720000068044B03441B685B68029309BD00005A
:10D73000D8AD07101400000009B504480068044B78
:10D7400003441B689B68029309BD0000D8AD071015
:10D750001400000009B504480068044B03441B682A
:10D76000DB68029309BD0000D8AD0710140000006B
:10D7700009B504480068044B03441B681B69029305
:10D7800009BD0000D8AD07101400000009B5044819
:10D790000068044B03441B685B69029309BD0000E9
:10D7A000D8AD07101400000009B504480068044B08
:10D7B00003441B681B6B029309BD0000D8AD071022
:10D7C0001400000009B504480068044B03441B68BA
:10D7D0005B68029309BD0000D8AD0710000000008F
:10D7E00009B504480068044B03441B681B69029395
:10D7F00009BD0000D8AD07100000000009B50448BD
:10D800000068044B03441B685B69029309BD000078
:10D81000D8AD07100000000009B504480068044BAB
:10D8200003441B68DB6D029309BD0000D8AD0710EF
:10D830000000000009B504480068044B03441B685D
:10D840005B6C029309BD0000D8AD071030000000EA
:10D8500009B504480068044B03441B685B690293E4
:10D8600009BD0000D8AD07104C00000009B5044800
:10D870000068044B03441B68DB68029309BD000089
:10D88000D8AD07102400000009B504480068044B17
:10D8900003441B681B69029309BD0000D8AD071043
:10D8A0002400000009B504480068044B03441B68C9
:10D8B0005B69029309BD0000D8AD07102400000089
:10D8C00009B504480068044B03441B689B69029334
:10D8D00009BD0000D8AD07102400000009B50448B8
:10D8E0000068044B03441B68DB69029309BD000018
:10D8F000D8AD07102400000009B504480068044BA7
:10D9000003441B681B6A029309BD0000D8AD0710D1
:10D910002400000009B504480068044B03441B6858
:10D920009B6A029309BD0000D8AD071024000000D7
:10D9300009B504480068044B03441B681B6C029340
:10D9400009BD0000D8AD07102400000009B5044847
:10D950000068044B03441B681B6A029309BD000066
:10D96000D8AD07101000000009B504480068044B4A
:10D9700003441B685B6A029309BD0000D8AD071021
:10D980001000000009B504480068044B03441B68FC
:10D990009B6A029309BD0000D8AD0710100000007B
:10D9A00009B504480068044B03441B68DB6A029312
:10D9B00009BD0000D8AD07101000000009B50448EB
:10D9C0000068044B03441B681B6B029309BD0000F5
:10D9D000D8AD07101000000009B504480068044BDA
:10D9E00003441B685B6B029309BD0000D8AD0710B0
:10D9F0001000000009B504480068044B03441B688C
:10DA00001B6C029309BD0000D8AD07101000000088
:10DA100009B504480068044B03441B681B69029362
:10DA200009BD0000D8AD07101800000009B5044872
:10DA30000068044B03441B68DB69029309BD0000C6
:10DA4000D8AD07101800000009B504480068044B61
:10DA500003441B681B6A029309BD0000D8AD071080
:10DA60001800000009B504480068044B03441B6813
:10DA70005B6A029309BD0000D8AD071018000000D2
:10DA800009B504480068044B03441B689B6A029371
:10DA900009BD0000D8AD07101800000009B5044802
:10DAA0000068044B03441B68DB6A029309BD000055
:10DAB000D8AD07101800000009B504480068044BF1
:10DAC00003441B689B6B029309BD0000D8AD07108F
:10DAD0001800000009B504480068044B03441B68A3
:10DAE0001B6C029309BD0000D8AD071018000000A0
:10DAF00009B504480068044B03441B685B6C02933F
:10DB000009BD0000D8AD07101800000009B5044891
:10DB10000068044B03441B681B68029309BD0000A6
:10DB2000D8AD07103400000009B504480068044B64
:10DB300003441B685B68029309BD0000D8AD071061
:10DB40003400000009B504480068044B03441B6816
:10DB50001B69029309BD0000D8AD07103400000016
:10DB600009B504480068044B03441B685B690293D1
:10DB700009BD0000D8AD07103400000009B5044805
:10DB80000068044B03441B689B69029309BD0000B5
:10DB9000D8AD07103400000009B504480068044BF4
:10DBA00003441B68DB69029309BD0000D8AD071070
:10DBB0003400000009B504480068044B03441B68A6
:10DBC0001B6A029309BD0000D8AD071034000000A5
:10DBD00009B504480068044B03441B689B6A029320
:10DBE00009BD0000D8AD07103400000009B5044895
:10DBF0000068044B03441B685B6D029309BD000081
:10DC0000D8AD07104800000009B504480068044B6F
:10DC100003441B685B68029309BD0000D8AD071080
:10DC20000800000009B504480068044B03441B6861
:10DC30005B69029309BD0000D8AD07100800000021
:10DC400009B504480068044B03441B68D3F88830C6
:10DC5000029309BDD8AD07100800000009B50448BB
:10DC60000068044B03441B68D3F89430029309BD49
:10DC7000D8AD07100800000009B504480068044B3F
:10DC800003441B685B68029309BD0000D8AD071010
:10DC90002800000009B504480068044B03441B68D1
:10DCA0009B68029309BD0000D8AD07102800000052
:10DCB00009B504480068044B03441B68DB68029301
:10DCC00009BD0000D8AD07102800000009B50448C0
:10DCD0000068044B03441B681B69029309BD0000E4
:10DCE000D8AD07102800000009B504480068044BAF
:10DCF00003441B685B69029309BD0000D8AD07109F
:10DD00002800000009B504480068044B03441B6860
:10DD10009B69029309BD0000D8AD071028000000E0
:10DD200009B504480068044B03441B68DB6902938F
:10DD300009BD0000D8AD07102800000009B504484F
:10DD40000068044B03441B681B6A029309BD000072
:10DD5000D8AD07102800000009B504480068044B3E
:10DD600003441B681B6B029309BD0000D8AD07106C
:10DD70002800000009B504480068044B03441B68F0
:10DD80005B6B029309BD0000D8AD071028000000AE
:10DD900009B504480068044B03441B681B6C0293DC
:10DDA00009BD0000D8AD07102800000009B50448DF
:10DDB0000068044B03441B685B6C029309BD0000C0
:10DDC000D8AD07102800000009B504480068044BCE
:10DDD00003441B685B6D029309BD0000D8AD0710BA
:10DDE0002800000009B504480068044B03441B6880
:10DDF0009B6D029309BD0000D8AD071028000000FC
:10DE000009B504480068044B03441B689B680293EF
:10DE100009BD0000D8AD07102C00000009B504486A
:10DE20000068044B03441B68DB6B029309BD0000D0
:10DE3000D8AD07102C00000009B504480068044B59
:10DE400003441B681B68029309BD0000D8AD07108E
:10DE50000400000009B504480068044B03441B6833
:10DE60005B68029309BD0000D8AD071004000000F4
:10DE700009B504480068044B03441B685B6A0293BD
:10DE800009BD0000D8AD07100400000009B5044822
:10DE90000068044B03441B681B6C029309BD00001F
:10DEA000D8AD07100400000009B504480068044B11
:10DEB00003441B685B6C029309BD0000D8AD0710DA
:10DEC00004000000002240681146FFF737BF00221F
:10DED00040681146FFF74EBF00224068FFF73CBF85
:10DEE0000022406881F00101FFF71ABF002340685B
:10DEF0001A461946FFF706BF002340681A4619461E
:10DF0000FFF7F2BE002240681146FFF7DFBE002295
:10DF100040681146FFF7BEBE002202214068FFF7AD
:10DF2000C7BE002340681A46FFF7A6BE0322024B75
:10DF30005A60024A1A60704780AE071098FD3F028F
:10DF40000021FFF7D5BD0021FFF7C4BD10B5044681
:10DF500008462170FFF76AFD00232046636010BD6C
:10DF60000078FFF7F0BF0078FFF7EABF30B5002474
:10DF7000400818601868E5B2884206D90134082CB8
:10DF800002D040081860F5E70725024B5B5D13706F
:10DF900030BD00BFD4FD3F0200232DE9F04104460F
:10DFA00088B000780E4617460293FFF7CCFF05466F
:10DFB00000BB0146142203A894F8008000F019FE6B
:10DFC0000B232A46404603A9ADF80C30FFF74AFD63
:10DFD00007FB06F1049802AB0DF107028DF807501C
:10DFE000FFF7C4FF20789DF80710FFF711FD207898
:10DFF000FFF7A6FF029808B0BDE8F08130B587B002
:10E000000A9D044600950078FFF73AFD3DB9207857
:10E0100002A9FFF751FD9DF81430DB07F7D407B0D4
:10E0200030BD000002220020044B1A60044B054A58
:10E03000C3E900009A60FFF7E7BD00BF94AE071088
:10E0400088AE07100000FFFF002302480360FFF7BF
:10E05000F1BB00BF98AE0710F8B506460D46002488
:10E060008F18BD420CD0336830469B6815F8011BF1
:10E070009847031E01DB1C44F3E7002C08BF1C4635
:10E080002046F8BD13B50446084659B10191FFF783
:10E090000FF80246204623680199DB6802B0BDE80C
:10E0A0001040184702B010BD03689B68184738B588
:10E0B0000D210546FFF7F8FF0A2104462846FFF721
:10E0C000F3FF204438BD0023012A98BF0A2230B54F
:10E0D0008BB08DF8243009AC0D46B1FBF2F101FB99
:10E0E000125303F0FF03092B94BF30333733DBB2F5
:10E0F000AA4204F8013DEFD92146FFF7C3FF0BB058
:10E1000030BD2DE9F04186B000AF05460E46381D02
:10E11000142114463B60FFF7ABFE13280ED82846A7
:10E12000391DFFF7AFFF04461EB12846FFF7BFFFBA
:10E13000044420461837BD46BDE8F08100F10803CD
:10E1400023F00703E846ADEB030D2246411C3B6874
:10E150006846FFF78DFE69462846FFF793FF0446A1
:10E16000C546E1E710B50446FFF748FBE0602368C9
:10E1700020465B699847002808DAFFF73FFBE36811
:10E18000C01AA3689842F2D34FF0FF3010BD2DE9BA
:10E19000F04107460C460D468E18B542A5EB040823
:10E1A00007D03846FFF7DEFF031E02DB05F8013B10
:10E1B000F3E74046BDE8F081014B024A1A60704720
:10E1C0009CAE0710DCFD3F02024B1A68024B1A603E
:10E1D000704700BFDCAD0710A0AE07100021FFF7AD
:10E1E00021BD00000022014B9A607047A4AE0710C9
:10E1F000014B1860704700BFE0AD071008B50F4B2A
:10E2000043B100F077F903681B699847002801DDE6
:10E2100000E000BF0A4B43B100F006FC03681B6935
:10E220009847002801DD00E000BF064B0BB100F06D
:10E2300041FC054B0BB100F073FC08BD0000000071
:10E2400000000000000000000000000008B5FFF71B
:10E25000D5FFFFF7D3FA014B186008BD4CAF07108C
:10E260000548064A08B5121A054900F0B5FC054BE9
:10E27000054A1A6008BD00BF00B4071004B40710B7
:10E2800088F05F0800B407101E1C279A002307B50A
:10E290001A466FF077010093FFF7E0FC03B05DF8DA
:10E2A00004FB000007B543880A2B08D0502B0BD184
:10E2B000094B1B684BB103B05DF804EB1847FFF73F
:10E2C000E5FF03B05DF804FB00231A466FF0770109
:10E2D0000093FFF7C3FCF4E7B8AE0710002110B5B8
:10E2E0001148FFF7E1FD114B1A68114B9A420CBF20
:10E2F000012200220F4B1A7001D0FFF7B1FFFFF788
:10E3000061FA044600F07EFC0B4B13B1204600E09E
:10E3100000BF00210848FFF781FDBDE81040002143
:10E320000648FFF78DBC00BFD1F13F0200B40710D3
:10E330001E1C279AB4AE07100000000085F23F02B1
:10E34000704710B504461821FEF7D9FE204610BDCF
:10E35000F0B5037D0E46062B4FF000048DB000F1A2
:10E36000040712D000F1080515F8011D0A223046F5
:10E37000FFF7A9FEAF42044419D0002CF4D02E219F
:10E380003046FFF791FE0444EEE72F236A463946F4
:10E390000A208DF80040FFF75BFA6846FEF788FE1A
:10E3A0003368024669463046DB6898470446204693
:10E3B0000DB0F0BD10B50446044B1122002140F809
:10E3C000043B00F016FC204610BD00BF04FE3F02D7
:10E3D0000346074A10B543F8042B01F1100251F827
:10E3E000044B914243F8044BF9D10A781A7010BDDE
:10E3F00004FE3F0210B59DF8084044EA032343EAB7
:10E400000242042342EA01614160037510BD00002D
:10E4100007B5064B0360CB7800938B784A78097870
:10E42000FFF7E8FF03B05DF804FB00BF04FE3F0206
:10E43000417470477047704708B50021007CFFF7B2
:10E440009DFB40EAE07008BD08B50121007CFFF7A4
:10E4500095FB40EAE07008BD08B5007CFFF780FB43
:10E4600020EAE07008BD08B5007CFFF76BFB20EAEE
:10E47000E07008BD13B50446007C0191FFF770FB06
:10E480000028019901DC607C20B1207CFFF784FB2F
:10E4900020EAE07002B010BD007CFFF78BBB10B526
:10E4A00004461421FEF72BFE204610BD10B54FF494
:10E4B0007A73044608460021C4E90113044B207412
:10E4C0002360012311466374FFF720FB204610BD33
:10E4D00018FE3F020022007CFFF726BB007CFFF7FE
:10E4E00077BB10B504461422002100F082FB2046C1
:10E4F00010BD000010B588B003A8FFF7F2FF0C4C68
:10E50000D4E88F1F11F001010FD120460191FEF7D1
:10E51000F8FD019948B103AA0648FFF7C7FF204656
:10E52000FEF7F4FD044800F051FB024808B010BDAE
:10E53000BCAE0710C0AE071015F43F02704741741F
:10E54000704708B5007CFFF7E5F920EAE07008BDE8
:10E5500008B5007CFFF798F920EAE07008BD08B51F
:10E56000007CFFF7ADF940EAE07008BD08B5007C1B
:10E57000FFF798F940EAE07008BD007CFFF7AEB9FC
:10E5800037B5457C04462DB1207C03B0BDE8304052
:10E59000FFF76CB9007C0191FFF7BCF900280199E5
:10E5A000F2DC284603B030BD10B504461421FEF756
:10E5B000A6FD204610BD000010B54FF47A73044646
:10E5C000084611460022C4E90123044B207423604D
:10E5D00001236374FFF7ACF9204610BD4CFE3F02E7
:10E5E000007CFFF789B97047F8B5064615460C461A
:10E5F0008F18BC4206D0336830469B6814F8011B64
:10E600009847F6E72846F8BD0022007CFFF79EB940
:10E610000021007CFFF7A8B90021007CFFF7B2B908
:10E620000021007CFFF7BCB90021007CFFF7C6B9D0
:10E6300010B504461421FEF762FD204610BD00000F
:10E6400038B5044615464FF47A730022C4E9012315
:10E65000094B0846217423602946FFF7CBF9BF30E8
:10E6600008D16B69DB0705D56868FFF7F3FBE8683D
:10E67000FFF7F0FB204638BD80FE3F02FF2100225D
:10E68000044B0120C3E9001264211A61C3E90201AD
:10E69000704700BFD4AE0710002240681146FFF754
:10E6A00015BB002240681146FFF748BB00224068B6
:10E6B0001146FFF75FBB00224068FFF74DBB002209
:10E6C000406881F00101FFF72BBB002340681A4628
:10E6D0001946FFF717BB002340681A461946FFF793
:10E6E00003BB002240681146FFF7D4BA0022022182
:10E6F0004068FFF7DDBA002340681A46FFF7BCBA4E
:10E700000422024B5A60024A1A607047E8AE0710B2
:10E71000ACFE3F02002340681A46FFF7ADBA002264
:10E7200002214068FFF7C4BA002240681146FFF793
:10E73000B1BA002240681146FFF7C8BA002340680A
:10E740001A461946FFF7D0BA002340681A46194600
:10E75000FFF7D8BA00214068FFF71ABB00214068D4
:10E76000FFF724BB0022406881F00101FFF7D8BA0F
:10E7700000224068FFF7F0BA002240681146FFF718
:10E78000F9BA002240681146FFF7D8BA0021406864
:10E79000FFF728BB2DE9F04395B014460D46074618
:10E7A000FFF708FE00211C220DA8009100F021FABD
:10E7B000402320460C9300216B460CAAFEF7A0FFD5
:10E7C000044600284BD1024601216868FFF77EFA13
:10E7D0000221804622466868FFF778FA2146814682
:10E7E000009E002E3BD0002939D17368022B03D044
:10E7F0000A2B11D0F669F4E7B8F1000FFAD071696D
:10E8000006A804313C1D07ADFFF702FE0FCD0FC473
:10E810002B6841462370EDE7B9F1000FEAD01022D2
:10E8200001A8746900F0E5F9062301AD8DF81430F4
:10E8300004F1080318342A4618685968083303C2DB
:10E84000A3421546F7D101A906A83C1D07ADFFF765
:10E85000BFFD0FCD0FC42B6849462370CAE700984F
:10E86000FEF740FF384615B0BDE8F08303380228B4
:10E870009ABF024B53F8200001487047E8FE3F0260
:10E88000F0AE071008B500224068FFF79DFABDE81A
:10E890000840FFF7EBBF0000024B034A1A6000225A
:10E8A0005A607047F0AE0710FCFE3F02FEF752BF01
:10E8B0001B2837B5044602D9002003B030BDA0F1B3
:10E8C0000F03022B0BD9012821D800F059F90021A0
:10E8D000007CFFF781F880F00100C0B2EDE7114D38
:10E8E000D5E88F1F11F001010BD128460191FEF7E9
:10E8F00008FC019928B10C48FFF728FB2846FEF7D1
:10E9000005FC094B1878FFF79FF80028D4D1083C84
:10E91000012C05D800F088F8007CFEF7EDFFDAE75F
:10E920000120CAE7F8AE0710FCAE07101B2838B567
:10E9300004460D460AD8FF2908D0FFF7B9FF28B1D1
:10E9400029462046BDE83840FEF7F6BE38BD38B54A
:10E9500004460D46FEF7FEFEFF2810D0062804D818
:10E960004D2323FA00F0C30709D42046FFF7A0FF88
:10E9700028B129462046BDE83840FEF7F9BE38BD2B
:10E9800010B50446FEF7E6FE031FDBB2012B08D9E3
:10E990002046FFF78DFF20B12046BDE81040FEF76E
:10E9A000F5BE002010BD10B50446FFF781FF50B141
:10E9B00003212046FEF7B2FE032804D12046BDE81D
:10E9C0001040FEF7F1BE002010BD704738B5142589
:10E9D00004462A46002100F00CF92580402507490D
:10E9E00028462581258200F0EFF80449606028461A
:10E9F00000F0EAF8E060204638BD00BF38FF3F0273
:10EA00007047704710B50446FFF7E0FF204610BD81
:10EA100010B50446FFF7DAFF204610BD10B50446D6
:10EA2000FFF7D4FF204610BD30B50E4D87B0D5E8B6
:10EA30008F1F11F0010411D12846FEF762FB68B167
:10EA400001A8FFF7DFFF214601AA0748FFF7B4FD41
:10EA50002846FEF75BFB054800F0B8F8024807B00F
:10EA600030BD00BF04AF071010AF0710ABF93F0275
:10EA700010B50D4C86B0D4E88F3FDB0711D420468B
:10EA8000FEF73FFB68B101A8FFF7C2FF012101AA11
:10EA90000648FFF791FD2046FEF738FB044800F0DA
:10EAA00095F8024806B010BD08AF071024AF071054
:10EAB000E3F93F0210B5FFF7DBFF074B044653B104
:10EAC000FFF78EFD38B1236820461B699847002860
:10EAD00001DD00E000BF10BD0000000010B50D4CCE
:10EAE00086B0D4E88F3FDB0711D42046FEF709FB40
:10EAF00068B101A8FFF792FF022101AA0648FFF7BB
:10EB00005BFD2046FEF702FB044800F05FF8024878
:10EB100006B010BD0CAF071038AF0710E1F93F0287
:10EB200010B5FFF7DBFF074B044653B1FFF758FD65
:10EB300038B1236820461B699847002801DD00E0B2
:10EB400000BF10BD000000007047000038B50A4B40
:10EB500004460360012309494361202000F034F892
:10EB60002025606005492846A56000F02DF8C4E91D
:10EB70000305204638BD00BF1800010038FF3F02E2
:10EB800030B50E4D87B0D5E88F1F11F0010411D1BB
:10EB90002846FEF7B6FA68B16846FFF7D7FF6A461F
:10EBA00021460748FFF74CFD2846FEF7AFFA054817
:10EBB00000F00CF8024807B030BD00BF50AF07109E
:10EBC00054AF071029FB3F02FEF797BA0023014616
:10EBD0001A46184600F044B80A44431E914200D138
:10EBE000704710B511F8014B914203F8014FF9D16C
:10EBF00010BD02440346934200D1704703F8011B45
:10EC0000F9E7000038B5104B04461D68AB6BB3B98B
:10EC10001820FFF711F90246A86320B90B4B4221D7
:10EC20000B48FFF733F90B490B4BC0E900130B4BB3
:10EC3000002183600B2383810120C2E90401AB6BB7
:10EC400000221C615A6138BDE0AD071039FF3F0258
:10EC500050FF3F020E33CDAB34126DE6ECDE050003
:10EC60002DE9F843DFF8BC8006461F460D46D8F86C
:10EC70000000914600F058F8264B1C6834B9264C29
:10EC80001C60264B13B11B68C4F8883063681F2BC7
:10EC900007DDD8F8000000F049F84FF0FF30BDE87C
:10ECA000F8835EB3D4F8880088B91D4B23B9D8F82F
:10ECB000000000F03AF8F0E74FF48470FFF7BCF87A
:10ECC0000028F4D00023C0E94033C4F8880063680A
:10ECD0000122022E40F8239002FA03F200EB830196
:10ECE000D0F8003143EA0203C0F80031C1F8807067
:10ECF00002BFD0F804311343C0F804316368D8F878
:10ED000000005A1C0233626044F8235000F00EF8F1
:10ED10000020C4E7F4AF071068AF07100000000040
:10ED200019EE3F0244AE071070477047704700006D
:10ED3000A1E03F02C9E03F02CDE03F020000000039
:10ED400072656164696E672025690A0079656C6C7B
:10ED50006F77005350492F5350493120696E7465C5
:10ED60007266616365206E6F7420646566696E65A6
:10ED700064210000506978656C2074797065206E9C
:10ED80006F7420737570706F727465642100000079
:10ED90004E6F7420656E6F756768206D656D6F725C
:10EDA0007920617661696C61626C65210000000008
:10EDB000000000000000000003EF3F02F9EE3F02F8
:10EDC000EFEE3F02E5EE3F02D9EE3F02CDEE3F020D
:10EDD00035F73F023DF73F02C1EE3F02B9EE3F0279
:10EDE000AFEE3F02A5EE3F0265F83F026DF73F022E
:10EDF00075F73F0200081018202830386170700045
:10EE000025592D256D2D25645425483A254D3A2543
:10EE100053257A0061736374696D6500000000001A
:10EE20000000000031F33F0221F33F0223F33F02D1
:10EE3000000000000000000017F43F027FF43F02D2
:10EE400055F43F0239F03F0247F43F0219F43F0204
:10EE500029F43F0279F43F026FF13F0239F43F0297
:10EE600011F43F0200000000000000001DF53F0209
:10EE700089F53F0261F53F0239F03F0231F53F026B
:10EE80004DF53F023FF53F025BF53F026FF13F0258
:10EE90001FF53F0223F53F020000000000000000C4
:10EEA000C7F53F0211F63F02E9F53F02C9F53F02FF
:10EEB000F1F53F02F9F53F0201F63F0209F63F0284
:10EEC0006FF13F020000000000000000D7F63F0293
:10EED000CDF63F02C3F63F0279F63F02B7F63F0296
:10EEE000ABF63F0235F73F023DF73F029FF63F0288
:10EEF00097F63F028DF63F0283F63F0265F83F0228
:10EF00006DF73F0275F73F0280AE0710E8AE0710BD
:10EF1000F0AE07100000000000000000F5F63F0210
:10EF2000FFF63F0209F73F0213F73F021DF73F02CA
:10EF300029F73F0235F73F023DF73F0245F73F0211
:10EF400051F73F0259F73F0263F73F0265F83F026E
:10EF50006DF73F0275F73F02005245454E54206D54
:10EF6000616C6C6F632073756363656564656400D1
:10EF70002F6D6E742F776F726B73706163652F776F
:10EF80006F726B73706163652F4743432D31302D72
:10EF9000706970656C696E652F6A656E6B696E73FA
:10EFA0002D4743432D31302D706970656C696E6556
:10EFB0002D34385F32303230313132345F313630D7
:10EFC000363138303634312F7372632F6E65776C7B
:10EFD00069622F6E65776C69622F6C6962632F734B
:10EFE00074646C69622F72616E642E6300000000AD
:10EFF00031E23F020DEF3F0205F03F0229F03F02F0
:10F0000099F13F02A9F13F02C5F13F025DF63F02CF
:08F01000E1F63F0279F83F022E
:10F0180000000002F4FD3F02E4AD0710000000000C
:10F0280000000000000000000000000000000000D8
:10F0380000000000000000000000000000000000C8
:10F0480000000000000000000000000000000000B8
:10F0580000000000000000000000000000000000A8
:10F068000000000000000000000000000000000098
:10F07800000000000000000000000000F8AF0710CA
:04F088000000000084
:10FFBE000200100000D05F08A8D05F0888E03F0262
:10FFCE0001000A00FFFFFFFFFFFF00000102030414
:10FFDE0005060708090A0B0C0D0E0F10111213144B
:0EFFEE0015161718191A1B1C1D1E1F203E0089
:04FFFC0078563412ED
:04000005085FD018A8
:00000001FF
