:02000004085F93
:10D0000000D05F08FCFF5F0800000600200005015B
:08D0100004010D1700000000EF
:10D018001348144908B5884205D0134A824202D001
:10D02800124B121A98471248124A0021124B121A30
:10D03800984712481249884205D0124A824202D0C3
:10D048000A4B121A984710481049884205D0104ACE
:10D05800824202D0054B121A9847014808BD00BF0A
:10D06800DCAD071038EF5F084CAE07102D0D11101E
:10D078004CAE0710FCAF0710A10E111068E13F027B
:10D08800A8D05F0870E13F0270E13F02B0D05F08AE
:0CD09800F8FF3F0219D05F080000000004
:08D0A8009CD05F0824FD3F024B
:10D0B000034613F8012B002AFBD1181A01387047D8
:10D0C00070B501F0A5F80025054E064CA41BA40878
:10D0D000AC4200D170BD56F8043B98470135F7E7E4
:10D0E000D0FF3F02F8FF3F0200F014B808B500F08F
:10D0F00053F8BDE8084001F043B800F081BE00F0ED
:10D100008DBE0078B0FA80F04009704701230370AB
:10D110007047000038B501F087F94FF4165101F05F
:10D1200073F9002000F05CFB42F210750446002009
:10D1300000F056FB001B61F10001A84271F10003F1
:10D1400007D201F071F901F063F910B900F03CFE6B
:10D15000EDE701F069F901F05BF90121032001F02D
:10D160007FFB00210B2001F07BFB0A4800F0C4F894
:10D170000A21084800F073FA0024064DA1B2FF22EC
:10D18000284600F029FA0134284600F01BF90C2C3F
:10D19000F4D138BD64AE0710F8B51C4D00242B68DF
:10D1A000262B26DD1A4F1B4EA1B23A46304600F020
:10D1B00013FA0134304600F005F90C2CF4D10121AA
:10D1C000032001F05EFB0B2001F087FB286042F298
:10D1D000107000F09DFF0021032001F052FB0B2096
:10D1E00001F07BFB286042F21070BDE8F84000F0CF
:10D1F0008FBF084EA1B2FF22304600F0EDF9013496
:10D20000304600F0DFF80C2CF4D1D8E77CAE0710E4
:10D2100000FFFF0064AE07100022114B10B5C3E9F8
:10D220000022A2F5803202209A6000F0D1FC0D4C61
:10D23000D4E88F3FDB070AD42046FFF762FF30B106
:10D240000121094800F058FE2046FFF75FFFBDE8C6
:10D25000104002230C21044A044800F03EB800BFED
:10D2600058AE07104CAE071050AE071064AE071052
:10D270000EB44FF0200C002300B58CB00DAA52F86C
:10D28000041BCDE904C3CDE900120392016804AA8E
:10D29000322000F08FFC0CB05DF804EB03B0704757
:10D2A00038B50446C0680D4608B100F0B7FDA37953
:10D2B000062B0CBF0420032010FB05F080B2A080D9
:10D2C00000F09EFDE06028B10021A28801F02BFC57
:10D2D000658038BDA0806080FBE770B500250446FE
:10D2E0001646C0E90355057083710572FFF7D8FF34
:10D2F0002046666170BD00002DE9F74F8379044632
:10D30000022B4ED143691B78012B06D929492A48A3
:10D31000FFF7AEFF03B0BDE8F08F002B0CBF4FF05E
:10D3200011094FF0040948460CBF1027032701F0EC
:10D3300057FA0646384601F053FA012E054633D116
:10D34000484601F0B7FA8246012D30D1384601F047
:10D35000B1FA80464FF0010B184B6069CDE9003BF4
:10D36000FF226B460021007800F07CFB5A461449EE
:10D37000606900F0E7FD3146484601F071FA294640
:10D38000384601F06DFA5E4504D148465FFA8AF1ED
:10D3900001F077FA012D04D138465FFA88F101F0E7
:10D3A00070FA01232370B5E74FF0000ACCE74FF085
:10D3B0000008CFE734FD3F029CAE071008000A00CA
:10D3C00008AF2F00C368002B00F0FC8070B5837994
:10D3D0000446022B82B040F0EF80868806EB4606BA
:10D3E000F036304600F00CFD0546002800F0EB80DA
:10D3F0003246002101F097FB6288002A00F0C780C6
:10D40000AC4602EBC202E1682A4491F90030087888
:10D41000002BB5BF4FF0D00E4FF0900ED8239823BD
:10D4200010F0400F08BF734610F0200F14BF032008
:10D43000022003448CF8783008780CF1090C00F0D5
:10D440001003002B15BF4FF0690E4FF0490E6D23EE
:10D450004D2310F0080F08BF73468CF870300B781E
:10D46000033113F0020F14BF3020202013F0010FFE
:10D470000CBF4FF0040E4FF0060E5B0103F080036B
:10D48000034473448CF8713011F9020C11F8023C1A
:10D490000028B5BF4FF0D00E4FF0900ED820982046
:10D4A00013F0400F08BF704613F0200F14BF032382
:10D4B000022303448CF8723011F8020C00F01003C0
:10D4C000002B15BF4FF0690E4FF0490E6D234D2311
:10D4D00010F0080F08BF73468CF8733011F802EC97
:10D4E0001EF0020F14BF302020201EF0010F14BFC9
:10D4F000062304234FEA4E1E0EF0800E86449E44FF
:10D500008CF874E011F9013C11F8010C002BB5BF47
:10D510004FF0D00E4FF0900ED823982310F0400F0C
:10D5200008BF734610F0200F14BF032002200344ED
:10D530008CF8753011F8010C00F01003002B15BFAA
:10D540004FF0690E4FF0490E6D234D2310F0080F78
:10D5500008BF73468CF8763011F8010C10F0020FFA
:10D5600014BF4FF0300E4FF0200E430103F0800344
:10D570007344DBB2C00703F1060E03F104034CBF92
:10D580008CF877E08CF8773094457FF43EAF606993
:10D5900000F0BCFC0022334629466069009200F08E
:10D5A00003FD606900F0B5FC284600F037FC00F090
:10D5B000FBF8206102B070BD04490548FFF758FE32
:10D5C00002B070BD70470349F7E700BF54FD3F024A
:10D5D0009CAE071070FD3F024388F0B58B422DD9F9
:10D5E000067AC2F30743C2F30724D5B23EB17343B0
:10D5F00074437543C3F30723C4F307242D0A90F83B
:10D6000006C0C768BCF1060F0CBF042603264E43B4
:10D61000ACF1020CB919BCF1060F1DD8DFE80CF013
:10D62000041C08040F040400BC554B708D7005E009
:10D63000FE2B28BFFE23BB554D708C70F0BDBB5533
:10D640004C708D70037A120E13B9D2B2CA70F5E71E
:10D650005A43C2F30722F9E7BB554C70E6E7037A59
:10D660004A1CD2B2934270B51FD0013B13F0FF03A6
:10D67000C4680CD0FF290FBF4FF6FF71110201F1F2
:10D68000FF31B1FBF3F30CBFB1FBF3F39BB22546C3
:10D690008688291B89B28E4206D929785943C1F35D
:10D6A000072105F8011BF3E7027270BD09B50448B4
:10D6B0000068044B03441B689B68029309BD00008B
:10D6C000DCAD07105000000009B504480068044BA9
:10D6D00003441B68DB68029309BD0000DCAD071042
:10D6E0005000000009B504480068044B03441B685F
:10D6F0005B68029309BD0000DCAD07101400000058
:10D7000009B504480068044B03441B689B680293F6
:10D7100009BD0000DCAD07101400000009B5044885
:10D720000068044B03441B68DB68029309BD0000DA
:10D73000DCAD07101400000009B504480068044B74
:10D7400003441B681B69029309BD0000DCAD071090
:10D750001400000009B504480068044B03441B682A
:10D760005B69029309BD0000DCAD071014000000E6
:10D7700009B504480068044B03441B681B6B029303
:10D7800009BD0000DCAD07101400000009B5044815
:10D790000068044B03441B685B68029309BD0000EA
:10D7A000DCAD07100000000009B504480068044B18
:10D7B00003441B681B69029309BD0000DCAD071020
:10D7C0000000000009B504480068044B03441B68CE
:10D7D0005B69029309BD0000DCAD0710000000008A
:10D7E00009B504480068044B03441B68DB6D0293D1
:10D7F00009BD0000DCAD07100000000009B50448B9
:10D800000068044B03441B685B6C029309BD000075
:10D81000DCAD07103000000009B504480068044B77
:10D8200003441B685B69029309BD0000DCAD07106F
:10D830004C00000009B504480068044B03441B6811
:10D84000DB68029309BD0000DCAD07102400000076
:10D8500009B504480068044B03441B681B69029324
:10D8600009BD0000DCAD07102400000009B5044824
:10D870000068044B03441B685B69029309BD000008
:10D88000DCAD07102400000009B504480068044B13
:10D8900003441B689B69029309BD0000DCAD0710BF
:10D8A0002400000009B504480068044B03441B68C9
:10D8B000DB69029309BD0000DCAD07102400000005
:10D8C00009B504480068044B03441B681B6A0293B3
:10D8D00009BD0000DCAD07102400000009B50448B4
:10D8E0000068044B03441B689B6A029309BD000057
:10D8F000DCAD07102400000009B504480068044BA3
:10D9000003441B681B6C029309BD0000DCAD0710CB
:10D910002400000009B504480068044B03441B6858
:10D920001B6A029309BD0000DCAD07101000000067
:10D9300009B504480068044B03441B685B6A029302
:10D9400009BD0000DCAD07101000000009B5044857
:10D950000068044B03441B689B6A029309BD0000E6
:10D96000DCAD07101000000009B504480068044B46
:10D9700003441B68DB6A029309BD0000DCAD07109D
:10D980001000000009B504480068044B03441B68FC
:10D990001B6B029309BD0000DCAD071010000000F6
:10D9A00009B504480068044B03441B685B6B029391
:10D9B00009BD0000DCAD07101000000009B50448E7
:10D9C0000068044B03441B681B6C029309BD0000F4
:10D9D000DCAD07101000000009B504480068044BD6
:10D9E00003441B681B69029309BD0000DCAD0710EE
:10D9F0001800000009B504480068044B03441B6884
:10DA0000DB69029309BD0000DCAD071018000000BF
:10DA100009B504480068044B03441B681B6A029361
:10DA200009BD0000DCAD07101800000009B504486E
:10DA30000068044B03441B685B6A029309BD000045
:10DA4000DCAD07101800000009B504480068044B5D
:10DA500003441B689B6A029309BD0000DCAD0710FC
:10DA60001800000009B504480068044B03441B6813
:10DA7000DB6A029309BD0000DCAD0710180000004E
:10DA800009B504480068044B03441B689B6B029370
:10DA900009BD0000DCAD07101800000009B50448FE
:10DAA0000068044B03441B681B6C029309BD000013
:10DAB000DCAD07101800000009B504480068044BED
:10DAC00003441B685B6C029309BD0000DCAD0710CA
:10DAD0001800000009B504480068044B03441B68A3
:10DAE0001B68029309BD0000DCAD07103400000084
:10DAF00009B504480068044B03441B685B68029343
:10DB000009BD0000DCAD07103400000009B5044871
:10DB10000068044B03441B681B69029309BD0000A5
:10DB2000DCAD07103400000009B504480068044B60
:10DB300003441B685B69029309BD0000DCAD07105C
:10DB40003400000009B504480068044B03441B6816
:10DB50009B69029309BD0000DCAD07103400000092
:10DB600009B504480068044B03441B68DB69029351
:10DB700009BD0000DCAD07103400000009B5044801
:10DB80000068044B03441B681B6A029309BD000034
:10DB9000DCAD07103400000009B504480068044BF0
:10DBA00003441B689B6A029309BD0000DCAD0710AB
:10DBB0003400000009B504480068044B03441B68A6
:10DBC0005B6D029309BD0000DCAD0710480000004A
:10DBD00009B504480068044B03441B685B68029362
:10DBE00009BD0000DCAD07100800000009B50448BD
:10DBF0000068044B03441B685B69029309BD000085
:10DC0000DCAD07100800000009B504480068044BAB
:10DC100003441B68D3F88830029309BDDCAD0710BC
:10DC20000800000009B504480068044B03441B6861
:10DC3000D3F89430029309BDDCAD07100800000052
:10DC400009B504480068044B03441B685B680293F1
:10DC500009BD0000DCAD07102800000009B504482C
:10DC60000068044B03441B689B68029309BD0000D5
:10DC7000DCAD07102800000009B504480068044B1B
:10DC800003441B68DB68029309BD0000DCAD07108C
:10DC90002800000009B504480068044B03441B68D1
:10DCA0001B69029309BD0000DCAD071028000000CD
:10DCB00009B504480068044B03441B685B69029380
:10DCC00009BD0000DCAD07102800000009B50448BC
:10DCD0000068044B03441B689B69029309BD000064
:10DCE000DCAD07102800000009B504480068044BAB
:10DCF00003441B68DB69029309BD0000DCAD07101B
:10DD00002800000009B504480068044B03441B6860
:10DD10001B6A029309BD0000DCAD0710280000005B
:10DD200009B504480068044B03441B681B6B02934D
:10DD300009BD0000DCAD07102800000009B504484B
:10DD40000068044B03441B685B6B029309BD000031
:10DD5000DCAD07102800000009B504480068044B3A
:10DD600003441B681B6C029309BD0000DCAD071067
:10DD70002800000009B504480068044B03441B68F0
:10DD80005B6C029309BD0000DCAD071028000000A9
:10DD900009B504480068044B03441B685B6D02939B
:10DDA00009BD0000DCAD07102800000009B50448DB
:10DDB0000068044B03441B689B6D029309BD00007F
:10DDC000DCAD07102800000009B504480068044BCA
:10DDD00003441B689B68029309BD0000DCAD07107B
:10DDE0002C00000009B504480068044B03441B687C
:10DDF000DB6B029309BD0000DCAD07102C000000B6
:10DE000009B504480068044B03441B681B6802936F
:10DE100009BD0000DCAD07100400000009B504488E
:10DE20000068044B03441B685B68029309BD000053
:10DE3000DCAD07100400000009B504480068044B7D
:10DE400003441B681B6C029309BD0000DCAD071086
:10DE50000400000009B504480068044B03441B6833
:10DE60005B6C029309BD0000DCAD071004000000EC
:10DE7000002240681146FFF745BF00224068114666
:10DE8000FFF75CBF00224068FFF74ABF00224068EE
:10DE900081F00101FFF728BF002340681A461946A8
:10DEA000FFF714BF002340681A461946FFF700BF6A
:10DEB000002240681146FFF7EDBE0022406811467F
:10DEC000FFF7CCBE002202214068FFF7D5BE002339
:10DED00040681A46FFF7B4BE0322024B5A60024A5A
:10DEE0001A60704780AE071098FD3F020021FFF7CF
:10DEF000E3BD0021FFF7D2BD10B5044608462170EE
:10DF0000FFF778FD00232046636010BD0078FFF71F
:10DF1000F0BF0078FFF7EABF30B500244008186072
:10DF20001868E5B2884206D90134082C02D04008AE
:10DF30001860F5E70725024B5B5D137030BD00BF2D
:10DF4000D4FD3F0200232DE9F041044688B000785B
:10DF50000E4617460293FFF7CCFF054600BB01466D
:10DF6000142203A894F8008000F0DDFD0B232A465C
:10DF7000404603A9ADF80C30FFF758FD07FB06F14A
:10DF8000049802AB0DF107028DF80750FFF7C4FFAC
:10DF900020789DF80710FFF71FFD2078FFF7A6FFF8
:10DFA000029808B0BDE8F08130B587B00A9D0446FC
:10DFB00000950078FFF748FD3DB9207802A9FFF7EA
:10DFC0005FFD9DF81430DB07F7D407B030BD0000CB
:10DFD00002220020044B1A60044B054AC3E90000EA
:10DFE0009A60FFF7F5BD00BF94AE071088AE07102A
:10DFF0000000FFFF002302480360FFF7FFBB00BFE4
:10E0000098AE0710F8B506460D4600248F18BD429D
:10E010000CD0336830469B6815F8011B9847031EE7
:10E0200001DB1C44F3E7002C08BF1C462046F8BD6A
:10E0300013B50446084659B10191FFF739F8024675
:10E04000204623680199DB6802B0BDE810401847FC
:10E0500002B010BD03689B6818470023012A98BFCF
:10E060000A2230B58BB08DF8243009AC0D46B1FBD7
:10E07000F2F101FB125303F0FF03092B94BF30337D
:10E080003733DBB2AA4204F8013DEFD92146FFF74E
:10E09000CFFF0BB030BD10B50446FFF793FBE06037
:10E0A000236820465B699847002808DAFFF78AFB57
:10E0B000E368C01AA3689842F2D34FF0FF3010BD56
:10E0C0002DE9F04107460C460D468E18B542A5EBEA
:10E0D000040807D03846FFF7DEFF031E02DB05F811
:10E0E000013BF3E74046BDE8F0810000014B024AE6
:10E0F0001A6070479CAE0710DCFD3F02024B1A68A5
:10E10000024B1A60704700BFE0AD0710A0AE0710C9
:10E110000021FFF76BBD00000022014B9A607047A1
:10E12000A4AE0710014B1860704700BFE4AD0710A4
:10E1300008B50F4B43B100F077F903681B699847A6
:10E14000002801DD00E000BF0A4B43B100F006FCEF
:10E1500003681B699847002801DD00E000BF064BFB
:10E160000BB100F041FC054B0BB100F073FC08BD96
:10E17000000000000000000000000000000000009F
:10E1800008B5FFF7D5FFFFF71DFB014B186008BD71
:10E190004CAF07100548064A08B5121A054900F0A9
:10E1A000B5FC054B054A1A6008BD00BF00B4071056
:10E1B00004B40710A8EF5F0800B407101E1C279ACC
:10E1C000002307B51A466FF077010093FFF72AFD89
:10E1D00003B05DF804FB000007B543880A2B08D0A4
:10E1E000502B0BD1094B1B684BB103B05DF804EB0E
:10E1F0001847FFF7E5FF03B05DF804FB00231A465C
:10E200006FF077010093FFF70DFDF4E7B8AE07104C
:10E21000002110B51148FFF71DFE114B1A68114B74
:10E220009A420CBF012200220F4B1A7001D0FFF757
:10E23000B1FFFFF7ABFA044600F07EFC0B4B13B1C5
:10E24000204600E000BF00210848FFF7CBFDBDE8F5
:10E25000104000210648FFF7D7BC00BFE5F13F02A0
:10E2600000B407101E1C279AB4AE0710000000006F
:10E2700099F23F02704710B504461821FEF73FFFA0
:10E28000204610BDF0B5037D0E46062B4FF000046E
:10E290008DB000F1040712D000F1080515F8011D3A
:10E2A0000A223046FFF7D9FEAF42044419D0002CB1
:10E2B000F4D02E213046FFF7CDFE0444EEE72F23A5
:10E2C0006A4639460A208DF80040FFF7A5FA6846ED
:10E2D000FEF7EEFE3368024669463046DB68984733
:10E2E000044620460DB0F0BD10B50446044B112283
:10E2F000002140F8043B00F016FC204610BD00BF92
:10E3000004FE3F020346074A10B543F8042B01F10F
:10E31000100251F8044B914243F8044BF9D10A78AA
:10E320001A7010BD04FE3F0210B59DF8084044EA83
:10E33000032343EA0242042342EA01614160037578
:10E3400010BD000007B5064B0360CB7800938B78B7
:10E350004A780978FFF7E8FF03B05DF804FB00BFD7
:10E3600004FE3F02417470477047704708B50021B2
:10E37000007CFFF7E7FB40EAE07008BD08B501212B
:10E38000007CFFF7DFFB40EAE07008BD08B5007CC9
:10E39000FFF7CAFB20EAE07008BD08B5007CFFF774
:10E3A000B5FB20EAE07008BD13B50446007C01917E
:10E3B000FFF7BAFB0028019901DC607C20B1207CCA
:10E3C000FFF7CEFB20EAE07002B010BD007CFFF743
:10E3D000D5BB10B504461421FEF791FE204610BDB2
:10E3E00010B54FF47A73044608460021C4E90113BE
:10E3F000044B20742360012311466374FFF76AFB0A
:10E40000204610BD18FE3F020022007CFFF770BBC3
:10E41000007CFFF7C1BB10B504461422002100F0B8
:10E4200082FB204610BD000010B588B003A8FFF79E
:10E43000F2FF0C4CD4E88F1F11F001010FD12046E0
:10E440000191FEF75EFE019948B103AA0648FFF765
:10E45000C7FF2046FEF75AFE044800F051FB024871
:10E4600008B010BDBCAE0710C0AE071029F43F02C3
:10E4700070474174704708B5007CFFF72FFA20EA17
:10E48000E07008BD08B5007CFFF7E2F920EAE07013
:10E4900008BD08B5007CFFF7F7F940EAE07008BD59
:10E4A00008B5007CFFF7E2F940EAE07008BD007CA7
:10E4B000FFF7F8B937B5457C04462DB1207C03B091
:10E4C000BDE83040FFF7B6B9007C0191FFF706FACE
:10E4D00000280199F2DC284603B030BD10B504468F
:10E4E0001421FEF70CFE204610BD000010B54FF4BD
:10E4F0007A730446084611460022C4E90123044BFE
:10E500002074236001236374FFF7F6F9204610BDE1
:10E510004CFE3F02007CFFF7D3B97047F8B50646C2
:10E5200015460C468F18BC4206D0336830469B68AF
:10E5300014F8011B9847F6E72846F8BD0022007C36
:10E54000FFF7E8B90021007CFFF7F2B90021007C59
:10E55000FFF7FCB90021007CFFF706BA0021007C20
:10E56000FFF710BA10B504461421FEF7C8FD204687
:10E5700010BD000038B5044615464FF47A730022EA
:10E58000C4E90123094B0846217423602946FFF79B
:10E5900015FABF3008D16B69DB0705D56868FFF74E
:10E5A0003DFCE868FFF73AFC204638BD80FE3F029C
:10E5B000FF210022044B0120C3E9001264211A61EB
:10E5C000C3E90201704700BFD4AE071000224068C3
:10E5D0001146FFF75FBB002240681146FFF792BB70
:10E5E000002240681146FFF7A9BB00224068FFF7F0
:10E5F00097BB0022406881F00101FFF775BB002343
:10E6000040681A461946FFF761BB002340681A4666
:10E610001946FFF74DBB002240681146FFF71EBBAD
:10E62000002202214068FFF727BB002340681A46FA
:10E63000FFF706BB0422024B5A60024A1A60704779
:10E64000E8AE0710ACFE3F02002340681A46FFF711
:10E65000F7BA002202214068FFF70EBB0022406893
:10E660001146FFF7FBBA002240681146FFF712BBC4
:10E67000002340681A461946FFF71ABB002340687A
:10E680001A461946FFF722BB00214068FFF764BB1A
:10E6900000214068FFF76EBB0022406881F0010155
:10E6A000FFF722BB00224068FFF73ABB0022406818
:10E6B0001146FFF743BB002240681146FFF722BB1B
:10E6C00000214068FFF772BB2DE9F04395B0144676
:10E6D0000D460746FFF708FE00211C220DA80091F9
:10E6E00000F021FA402320460C9300216B460CAA2F
:10E6F000FEF7EAFF044600284BD102460121686874
:10E70000FFF7C8FA0221804622466868FFF7C2FA7E
:10E7100021468146009E002E3BD0002939D17368E6
:10E72000022B03D00A2B11D0F669F4E7B8F1000FE1
:10E73000FAD0716906A804313C1D07ADFFF702FE4F
:10E740000FCD0FC42B6841462370EDE7B9F1000FE0
:10E75000EAD0102201A8746900F0E5F9062301ADA2
:10E760008DF8143004F1080318342A4618685968E3
:10E77000083303C2A3421546F7D101A906A83C1DE0
:10E7800007ADFFF7BFFD0FCD0FC42B6849462370BF
:10E79000CAE70098FEF78AFF384615B0BDE8F08357
:10E7A000033802289ABF024B53F8200001487047F3
:10E7B000E8FE3F02F0AE071008B500224068FFF700
:10E7C000E7FABDE80840FFF7EBBF0000024B034A41
:10E7D0001A6000225A607047F0AE0710FCFE3F023C
:10E7E000FEF79CBF1B2837B5044602D9002003B0B2
:10E7F00030BDA0F10F03022B0BD9012821D800F066
:10E8000059F90021007CFFF7CBF880F00100C0B27D
:10E81000EDE7114DD5E88F1F11F001010BD128460E
:10E820000191FEF76EFC019928B10C48FFF764FBDB
:10E830002846FEF76BFC094B1878FFF7E9F800282B
:10E84000D4D1083C012C05D800F088F8007CFFF7F3
:10E8500037F8DAE70120CAE7F8AE0710FCAE071078
:10E860001B2838B504460D460AD8FF2908D0FFF703
:10E87000B9FF28B129462046BDE83840FEF740BF21
:10E8800038BD38B504460D46FEF748FFFF2810D0C6
:10E89000062804D84D2323FA00F0C30709D42046E4
:10E8A000FFF7A0FF28B129462046BDE83840FEF713
:10E8B00043BF38BD10B50446FEF730FF031FDBB27F
:10E8C000012B08D92046FFF78DFF20B12046BDE877
:10E8D0001040FEF73FBF002010BD10B50446FFF703
:10E8E00081FF50B103212046FEF7FCFE032804D12E
:10E8F0002046BDE81040FEF73BBF002010BD70472A
:10E9000038B5142504462A46002100F00CF925806C
:10E910004025074928462581258200F0EFF8044963
:10E920006060284600F0EAF8E060204638BD00BF8D
:10E9300038FF3F027047704710B50446FFF7E0FF0D
:10E94000204610BD10B50446FFF7DAFF204610BD83
:10E9500010B50446FFF7D4FF204610BD30B50E4D6C
:10E9600087B0D5E88F1F11F0010411D12846FEF7BA
:10E97000C8FB68B101A8FFF7DFFF214601AA0748DD
:10E98000FFF7B4FD2846FEF7C1FB054800F0B8F8D4
:10E99000024807B030BD00BF04AF071010AF07102A
:10E9A000BFF93F0210B50D4C86B0D4E88F3FDB07AE
:10E9B00011D42046FEF7A5FB68B101A8FFF7C2FFFE
:10E9C000012101AA0648FFF791FD2046FEF79EFBB4
:10E9D000044800F095F8024806B010BD08AF0710D3
:10E9E00024AF0710F7F93F0210B5FFF7DBFF074B25
:10E9F000044653B1FFF78EFD38B1236820461B69EA
:10EA00009847002801DD00E000BF10BD00000000B5
:10EA100010B50D4C86B0D4E88F3FDB0711D42046EB
:10EA2000FEF76FFB68B101A8FFF792FF022101AA70
:10EA30000648FFF75BFD2046FEF768FB044800F040
:10EA40005FF8024806B010BD0CAF071038AF0710D2
:10EA5000F5F93F0210B5FFF7DBFF074B044653B152
:10EA6000FFF758FD38B1236820461B6998470028F6
:10EA700001DD00E000BF10BD000000007047000095
:10EA800038B50A4B0446036001230949436120203D
:10EA900000F034F82025606005492846A56000F0A4
:10EAA0002DF8C4E90305204638BD00BF1800010059
:10EAB00038FF3F0230B50E4D87B0D5E88F1F11F0FB
:10EAC000010411D12846FEF71CFB68B16846FFF728
:10EAD000D7FF6A4621460748FFF74CFD2846FEF758
:10EAE00015FB054800F00CF8024807B030BD00BF28
:10EAF00050AF071054AF07103DFB3F02FEF7FDBAC1
:10EB0000002301461A46184600F044B80A44431E42
:10EB1000914200D1704710B511F8014B914203F8B2
:10EB2000014FF9D110BD02440346934200D1704712
:10EB300003F8011BF9E7000038B5104B04461D68C7
:10EB4000AB6BB3B91820FFF75BF90246A86320B995
:10EB50000B4B42210B48FFF76FF90B490B4BC0E9F8
:10EB600000130B4B002183600B2383810120C2E93A
:10EB70000401AB6B00221C615A6138BDE4AD071083
:10EB800039FF3F0250FF3F020E33CDAB34126DE62A
:10EB9000ECDE05002DE9F843DFF8BC8006461F4691
:10EBA0000D46D8F80000914600F058F8264B1C6836
:10EBB00034B9264C1C60264B13B11B68C4F888304E
:10EBC00063681F2B07DDD8F8000000F049F84FF00C
:10EBD000FF30BDE8F8835EB3D4F8880088B91D4BD8
:10EBE00023B9D8F8000000F03AF8F0E74FF4847049
:10EBF000FFF706F90028F4D00023C0E94033C4F839
:10EC0000880063680122022E40F8239002FA03F282
:10EC100000EB8301D0F8003143EA0203C0F8003171
:10EC2000C1F8807002BFD0F804311343C0F804313A
:10EC30006368D8F800005A1C0233626044F823501D
:10EC400000F00EF80020C4E7F4AF071068AF07101B
:10EC500000000000C1EE3F0248AE07107047704749
:10EC60007047000081E13F02A9E13F02ADE13F02B0
:10EC7000000000005350492F5350493120696E74F1
:10EC8000657266616365206E6F7420646566696E87
:10EC900065642100506978656C2074797065206E18
:10ECA0006F7420737570706F72746564210000005A
:10ECB0004E6F7420656E6F756768206D656D6F723D
:10ECC0007920617661696C61626C652100000000E9
:10ECD00000000000000000008FEF3F0285EF3F02C0
:10ECE0007BEF3F0271EF3F0265EF3F0259EF3F02BA
:10ECF00049F73F0251F73F024DEF3F0245EF3F0218
:10ED00003BEF3F0231EF3F0279F83F0281F73F02CC
:10ED100089F73F0200081018202830386170700011
:10ED200025592D256D2D25645425483A254D3A2524
:10ED300053257A0061736374696D650000000000FB
:10ED40000000000045F33F0235F33F0237F33F0276
:10ED500000000000000000002BF43F0293F43F028B
:10ED600069F43F02C5F03F025BF43F022DF43F021D
:10ED70003DF43F028DF43F0281F13F024DF43F022A
:10ED800025F43F02000000000000000031F53F02C2
:10ED90009DF53F0275F53F02C5F03F0245F53F0284
:10EDA00061F53F0253F53F026FF53F0281F13F02EB
:10EDB00033F53F0237F53F0200000000000000007D
:10EDC000DBF53F0225F63F02FDF53F02DDF53F0290
:10EDD00005F63F020DF63F0215F63F021DF63F0213
:10EDE00081F13F020000000000000000EBF63F024E
:10EDF000E1F63F02D7F63F028DF63F02CBF63F0227
:10EE0000BFF63F0249F73F0251F73F02B3F63F0218
:10EE1000ABF63F02A1F63F0297F63F0279F83F02B8
:10EE200081F73F0289F73F0280AE0710E8AE071076
:10EE3000F0AE0710000000000000000009F73F02DC
:10EE400013F73F021DF73F0227F73F0231F73F025A
:10EE50003DF73F0249F73F0251F73F0259F73F02A2
:10EE600065F73F026DF73F0277F73F0279F83F02FF
:10EE700081F73F0289F73F02005245454E54206D0D
:10EE8000616C6C6F632073756363656564656400B2
:10EE90002F6D6E742F776F726B73706163652F7750
:10EEA0006F726B73706163652F4743432D31302D53
:10EEB000706970656C696E652F6A656E6B696E73DB
:10EEC0002D4743432D31302D706970656C696E6537
:10EED0002D34385F32303230313132345F313630B8
:10EEE000363138303634312F7372632F6E65776C5C
:10EEF00069622F6E65776C69622F6C6962632F732C
:10EF000074646C69622F72616E642E63000000008D
:10EF1000D9E23F0299EF3F0291F03F02B5F03F0284
:10EF2000ADF13F02BDF13F02D9F13F0271F63F0260
:08EF3000F5F63F028DF83F02E7
:10EF380000000002F4FD3F02E8AD071000000000E9
:10EF480000000000000000000000000000000000B9
:10EF580000000000000000000000000000000000A9
:10EF68000000000000000000000000000000000099
:10EF78000000000000000000000000000000000089
:10EF88000000000000000000000000000000000079
:10EF9800000000000000000000000000F8AF0710AB
:04EFA8000000000065
:10FFBE000200100000D05F08A8D05F0868E13F0281
:10FFCE0001000A00FFFFFFFFFFFF00000102030414
:10FFDE0005060708090A0B0C0D0E0F10111213144B
:0EFFEE0015161718191A1B1C1D1E1F203E0089
:04FFFC0078563412ED
:04000005085FD018A8
:00000001FF
