:02000004085F93
:10B0000000B05F08FCFF5F0800000600200005019B
:08B010000401A018000000007B
:10B018001348144908B5884205D0134A824202D021
:10B02800124B121A98471248124A0021124B121A50
:10B03800984712481249884205D0124A824202D0E3
:10B048000A4B121A984710481049884205D0104AEE
:10B05800824202D0054B121A9847014808BD00BF2A
:10B0680080A90710D8F65F0814AE07102D0D11102F
:10B0780014AE0710FCAF0710A10E1110C8B93F029B
:10B08800A8B05F08D0B93F02D0B93F02B0B05F089E
:0CB09800F8FF3F0219B05F080000000044
:08B0A8009CB05F0818ED3F02A7
:10B0B00010F8012B11F8013B012A28BF9A42F7D062
:10B0C000D01A7047034613F8012B002AFBD1181A37
:10B0D0000138704770B502F09BF80025054E064C0C
:10B0E000A41BA408AC4200D170BD56F8043B98479D
:10B0F0000135F7E7CCFF3F02F8FF3F0200F072B8DE
:10B1000008B500F009F9BDE8084002F039B801F0CF
:10B110008FBD01F08DBD01F099BD0000744600B5F2
:10B120008DB02C22002101A803F02FF9054B0494C7
:10B130000193054B02937B46002101A8039301F084
:10B1400043FCFEE72C000C0028ED3F0270470EB4D4
:10B1500003B503AB53F8042B0021019301F06BFFFF
:10B1600002B05DF804EB03B07047000038B50B4B3C
:10B170008469054603607CB16368013B63605BB929
:10B18000236820469B689847A368013BA3601BB9CE
:10B1900023682046DB689847284638BD64FD3F0297
:10B1A00010B50446FFF7E2FF20461C21FFF7B3FF6E
:10B1B000204610BDF8B5044609480E46154600F075
:10B1C000D1FB074FB44206DCA1B22A46384600F054
:10B1D0005FFB0134F6E70248BDE8F84000F04EBAE4
:10B1E000ECAE071038B502F035F94FF4165102F005
:10B1F00021F9002001F048F942F2107504460020C0
:10B2000001F042F9001B61F10001A84271F1000355
:10B2100007D202F01FF902F011F910B901F0ECFCAD
:10B22000EDE702F017F902F009F90121032002F01D
:10B2300015FE00210B2002F011FE094800F0B8F9BC
:10B240000A21074800F067FB0121032002F017FEE6
:10B25000BDE83840FF220C210020FFF7ABBF00BF44
:10B26000ECAE071038B50B2002F035FE204800F098
:10B2700079FB0B2002F02FFE04461E4D1E4800F005
:10B2800053FD1E4800F050FD2B68A34220D002F071
:10B29000E1F822461A49FFF75AFFB4F5AF7F18DDEF
:10B2A000FF220C210020FFF785FF41F2883001F0DA
:10B2B0002FFF14491048FFF74AFF13490F48FFF7C3
:10B2C00046FF0D4800F0A6FD0C4800F0A3FD2C60E1
:10B2D00038BD0C210D4A0020FFF76CFF4FF4FA60D7
:10B2E00001F016FF0A490448FFF731FF0949E5E775
:10B2F000ECAE071004AF071094AE0710B8AE0710FD
:10B3000011EE3F021DEE3F0225EE3F0200FFFF005F
:10B3100030EE3F0239EE3F027FB501233B4D3C4CFE
:10B320002888236002F0C4FD2B7A002B5FD10038FF
:10B3300018BF01206B68984266D06860002863D00F
:10B340002368022B03F101020ABF0123226023605C
:10B3500002F080F822682F49FFF7F9FE2368022BDC
:10B3600049D00021032002F08AFD2B4800F0DCFCCC
:10B370002A4800F0D9FC4025012680240022CDE98E
:10B3800001561146264B2448009400F09FFE0022EF
:10B39000234B1146CDE901562048009400F096FE5B
:10B3A0001D4800F037FD1D4800F034FD1A4800F03C
:10B3B000BBFC1A4800F0B8FC0022CDE9015611464A
:10B3C000184B1548009400F081FE0022154B1146E1
:10B3D000CDE901561148009400F078FE0E4800F0C7
:10B3E00019FD0E4804B0BDE8704000F013BDB0FA7E
:10B3F00080F040099EE70121032002F040FD04B0E7
:10B40000BDE87040FFF72EBF04B070BD84AE0710DA
:10B4100090AE071041EE3F0294AE0710B8AE071091
:10B4200044EE3F0244F23F0210B52B492B4801F095
:10B4300091FD00242A4A2B4B12682B481A602B4A94
:10B4400012685A602A4A12689A602A4A1268DA60B8
:10B45000294A12681A61294A12685A61284A1268F0
:10B460009A6102F08BFB274802F088FB264B274AA3
:10B47000C3E900449A60022001F0B4FA2146012099
:10B4800001F0CCFA4FF0FF31214800F037FC4FF0CB
:10B49000FF31204800F032FC1F4CD4E88F3FDB071F
:10B4A0000AD4204601F026FC30B101211B4801F0EE
:10B4B00089FC204601F02CFC02230C21174A184875
:10B4C00000F067F804200022164B032118601A725E
:10B4D000BDE8104002F0C2BC58ED3F02DCAE0710E0
:10B4E00058AE07103CAE071020AE071090A9071009
:10B4F00098A9071088A9071084A907108CA907101C
:10B5000094A9071068AE07105CAE07100000FFFF9B
:10B5100094AE0710B8AE071014AE071018AE07109F
:10B52000ECAE071084AE07100EB44FF0200C0023D1
:10B5300000B58CB00DAA52F8041BCDE904C3CDE9C7
:10B5400000120392016804AA322001F02FFA0CB015
:10B550005DF804EB03B0704738B50446C0680D468B
:10B5600008B101F073FBA379062B0CBF0420032064
:10B5700010FB05F080B2A08001F05AFBE06028B11A
:10B580000021A28802F001FF658038BDA0806080A4
:10B59000FBE770B5002504461646C0E90355057063
:10B5A00083710572FFF7D8FF2046666170BD000009
:10B5B0002DE9F74F83790446022B4ED143691B785E
:10B5C000012B06D929492A48FFF7AEFF03B0BDE891
:10B5D000F08F002B0CBF4FF011094FF004094846C3
:10B5E0000CBF1027032702F0F9FB0646384602F08D
:10B5F000F5FB012E054633D1484602F059FC824640
:10B60000012D30D1384602F053FC80464FF0010B3B
:10B61000184B6069CDE9003BFF226B4600210078A2
:10B6200001F00EF95A461449606901F0F1FB314608
:10B63000484602F013FC2946384602F00FFC5E45EE
:10B6400004D148465FFA8AF102F019FC012D04D1B9
:10B6500038465FFA88F102F012FC01232370B5E747
:10B660004FF0000ACCE74FF00008CFE744F63F0266
:10B670003CAF071008000A0008AF2F00C368002B7A
:10B6800000F0FC8070B583790446022B82B040F054
:10B69000EF80868806EB4606F036304601F0C8FAA1
:10B6A0000546002800F0EB803246002102F06DFED6
:10B6B0006288002A00F0C780AC4602EBC202E16853
:10B6C0002A4491F900300878002BB5BF4FF0D00E16
:10B6D0004FF0900ED823982310F0400F08BF734608
:10B6E00010F0200F14BF0320022003448CF87830A0
:10B6F00008780CF1090C00F01003002B15BF4FF077
:10B70000690E4FF0490E6D234D2310F0080F08BF4E
:10B7100073468CF870300B78033113F0020F14BFAE
:10B720003020202013F0010F0CBF4FF0040E4FF01B
:10B73000060E5B0103F08003034473448CF8713000
:10B7400011F9020C11F8023C0028B5BF4FF0D00EE1
:10B750004FF0900ED820982013F0400F08BF70468D
:10B7600013F0200F14BF0323022303448CF872301C
:10B7700011F8020C00F01003002B15BF4FF0690EFA
:10B780004FF0490E6D234D2310F0080F08BF73468C
:10B790008CF8733011F802EC1EF0020F14BF302049
:10B7A00020201EF0010F14BF062304234FEA4E1E73
:10B7B0000EF0800E86449E448CF874E011F9013C32
:10B7C00011F8010C002BB5BF4FF0D00E4FF0900ECA
:10B7D000D823982310F0400F08BF734610F0200FB5
:10B7E00014BF0320022003448CF8753011F8010CBB
:10B7F00000F01003002B15BF4FF0690E4FF0490EFB
:10B800006D234D2310F0080F08BF73468CF8763077
:10B8100011F8010C10F0020F14BF4FF0300E4FF072
:10B82000200E430103F080037344DBB2C00703F131
:10B83000060E03F104034CBF8CF877E08CF87730E8
:10B8400094457FF43EAF606901F0C6FA00223346AA
:10B8500029466069009201F013FB606901F0BFFAAC
:10B86000284601F0F3F900F0F3FD206102B070BD4D
:10B8700004490548FFF758FE02B070BD7047034900
:10B88000F7E700BF64F63F023CAF071080F63F02C7
:10B890004388F0B58B422DD9067AC2F30743C2F331
:10B8A0000724D5B23EB1734374437543C3F30723F2
:10B8B000C4F307242D0A90F806C0C768BCF1060F30
:10B8C0000CBF042603264E43ACF1020CB919BCF19F
:10B8D000060F1DD8DFE80CF0041C08040F04040058
:10B8E000BC554B708D7005E0FE2B28BFFE23BB5569
:10B8F0004D708C70F0BDBB554C708D70037A120E7C
:10B9000013B9D2B2CA70F5E75A43C2F30722F9E776
:10B91000BB554C70E6E7037A4A1CD2B2934270B52D
:10B920001FD0013B13F0FF03C4680CD0FF290FBFE9
:10B930004FF6FF71110201F1FF31B1FBF3F30CBFC0
:10B94000B1FBF3F39BB225468688291B89B28E4250
:10B9500006D929785943C1F3072105F8011BF3E7FC
:10B96000027270BD82880021C06802F00EBD000026
:10B97000F0B5457EBDF81440022D69D0032D00F0CE
:10B980009B80012D6CD1D24305892A4412B2002A32
:10B990005DDBB0F90850954259DD0029BEBF5B1848
:10B9A00000211BB2B0F90A00CD188542C4BF431A6A
:10B9B0001BB2002B4BDDC1F3C400DFF824C102EB46
:10B9C000C01211F00701DBB20CEB02001AD0C1F17A
:10B9D0000805414EEDB2AB42775D3FBFFF26A5EBB8
:10B9E000030E46FA0EF637401CF80260012C0CBF1D
:10B9F0003E43BE43AB420CF8026028D308390B44E7
:10BA0000DBB28030072B19D9012C4FF0FF3518BF5E
:10BA100000251A46EDB200F18001083AD2B2072A99
:10BA200001F8805C01F18001F7D8A3F10802C2F3AC
:10BA3000C402013200EBC21003F007033BB1274AF6
:10BA4000012CD25C03780CBF134393430370F0BD09
:10BA5000D24345892A44CD18018912B2491B09B243
:10BA6000002AF4DBB0F90A509542F0DD0029BEBF90
:10BA70005B1800211BB2B0F90870CE18BE42C4BFDB
:10BA80006B1A1BB2002BE2DD8025D01010FB0511D4
:10BA90001348012C014402F007004FF0010202FAA2
:10BAA00000F2D2B20B440CD18B42D0D011F8010B72
:10BAB000104301F8010CF7E7CD184189491B09B281
:10BAC00065E7D243D2B28B42C1D011F8010B1040CE
:10BAD00001F8010CF7E700BFA4A907109CA9071003
:10BAE000ACA90710F0B5457EBDF81440022D36D044
:10BAF000032D00F09D80012D39D1D5180289521BEC
:10BB000012B20029C0F29380B0F90A508D4240F37E
:10BB10008E80002ABEBF9B1800221BB2B0F90870AD
:10BB2000D618BE42C4BFAB1A1BB2002B7FDD8025E6
:10BB3000C81010FB05224648012C024401F0070002
:10BB40004FF0010101FA00F1C9B2134475D19A42D4
:10BB50006DD012F8010B084302F8010CF7E7C94356
:10BB600005892944D518428909B2521B12B200290D
:10BB70005DDBB0F908508D4259DD002ABEBF9B182D
:10BB800000221BB2B0F90A00D5188542C4BF831A3F
:10BB90001BB2002B4BDDC2F3C400DFF8B4C001EBD5
:10BBA000C01112F00702DBB20CEB01001AD0C2F197
:10BBB0000805284EEDB2AB42775D3FBFFF26A5EBEF
:10BBC000030E46FA0EF637401CF80160012C0CBF3C
:10BBD0003E43BE43AB420CF8016028D3083A1344FD
:10BBE000DBB28030072B19D9012C4FF0FF3518BF7D
:10BBF00000251A46EDB200F18001083AD2B2072AB8
:10BC000001F8805C01F18001F7D8A3F10802C2F3CA
:10BC1000C402013200EBC21003F007033BB10E4A2D
:10BC2000012CD25C03780CBF134393430370F0BD27
:10BC3000C9434589294409B263E7C943C9B29A4255
:10BC4000F5D012F8010B084002F8010CF7E700BF2D
:10BC5000ACA90710A4A907109CA907107047000001
:10BC6000F8B50D1E064614461F462DDB00F034FBCA
:10BC7000A84229DD002C27DB304600F030FBA04233
:10BC800022DD304600F026FB02281ED0032825D0F6
:10BC9000012804D1E24333892C461A4415B22246C6
:10BCA0008021002CB8BFE21DD21012FB01550122E9
:10BCB0000D4904F007044B5702FA04F464B29742AA
:10BCC0000CBF2343A3434B55F8BDE443318972892C
:10BCD00001394D1B14442DB224B2E0E77389013BB6
:10BCE0005B1B25461CB2DAE7ACA9071010B5044669
:10BCF0002421FFF710FA204610BD000038B5044695
:10BD00000D464022802100F0CDF9064B20462360ED
:10BD1000FF2384F8213063774FF6FF7384F82050B7
:10BD2000E38338BDA8F63F024FF48062002101484A
:10BD300002F02BBBACA9071013B50A4CD4E88F1F37
:10BD400011F001010BD12046019100F0D3FF0199C0
:10BD500028B1054801F036F8204600F0D9FF024826
:10BD600002B010BD08AF07100CAF071007B590F870
:10BD7000223043B10191FFF7DFFF019903B05DF875
:10BD800004EB01F077B80B460122817F407F03B0BE
:10BD90005DF804EB02F0B1B838B590F91D300446F7
:10BDA00001330D461DD090F92100012180B202F02F
:10BDB00066F894F91F00002180B202F060F894F94F
:10BDC0002100002180B202F05AF829462046FFF7F0
:10BDD000CDFF94F921000121BDE8384080B202F086
:10BDE0004EB802F087F994F91B1001F0FBFB02F04A
:10BDF00081F9036800219B68984702F07BF903688A
:10BE000029469B68984702F075F9BDE8384001F073
:10BE1000F0BB0000F8B504462121FFF7BDFF00216B
:10BE20002046FFF7B9FF7F212046FFF7B5FF22210B
:10BE30002046FFF7B1FF00212046FFF7ADFF0721A5
:10BE40002046FFF7A9FF94F91D30294F01332AD06E
:10BE500094F92100012180B202F011F894F91F0039
:10BE6000012180B202F00BF894F92100002180B288
:10BE700002F005F8012000F0DDFA4FF48065013D85
:10BE8000204617F8011BADB2FFF770FF002DF6D169
:10BE9000012000F0CFFA94F921000121BDE8F8401B
:10BEA00080B201F0ECBF002502F024F994F91B10D8
:10BEB00001F098FB02F01EF9036840219B68984747
:10BEC00005F11006B6B202F015F90368795D9B68BA
:10BED00098476B1C9DB2AE42F5D102F00BF901F010
:10BEE00088FBB6F5806F00D1F8BD3546DCE700BFB2
:10BEF000ACA907102DE9F04F1F4685B0BDF9388079
:10BF0000A7EB010AA8EB0209B9F1000FB8BFC9F10C
:10BF10000009BAF1000FB8BFCAF1000AD145834643
:10BF20000C461546BDF83C3004DD3A462C464746E3
:10BF30000D469046BC4205DD2A46454690462246BF
:10BF40003C4617463E1BB2B20092A8EB050282EABD
:10BF5000E271A1EBE271C6F3C03202FA86F6454502
:10BF6000B4BF01224FF0FF32019176100292BC4221
:10BF70001CDCDBF80020D145D2F81080C7BF294671
:10BF800022462A46214603935846C047019A039BFE
:10BF9000B61AB1B236B2002E05DA029A1544009AEA
:10BFA0002DB2561836B2013424B2E0E705B0BDE830
:10BFB000F08F2DE9F347044616468A461D46BDF824
:10BFC0002C800768BDF92890CDF80080FF69B8473C
:10BFD000236809F1FF32CDF80080324451462046F3
:10BFE000DF6912B22B46B8472368CDF8008032468D
:10BFF000514620469F694B46B8476B1E03EB0A012A
:10C000002368CDF828809D6932464B462046AC46D1
:10C0100009B202B0BDE8F047604737B5013BBDF853
:10C020001850134404681BB2009301950B466469D1
:10C03000A04703B030BD37B5BDF818500468CDE94E
:10C040000025013B0B4464691BB2A04703B030BD1F
:10C050002DE9F347054692460C46BDF92890BDF8F8
:10C060002C80CE18B4420BDA2B68CDF80080214624
:10C070009F6952464B4628460134B84724B2F1E73F
:10C0800002B0BDE8F08713B50191B0F90E10026857
:10C090000091546A0022B0F90C301146A04702B05A
:10C0A00010BD70474281C2814FF0FF3230B542610E
:10C0B00000240122044D44600560018181810461F6
:10C0C0000283827630BD00BFDCFB3F022DE9F04FDA
:10C0D00000244FF08009254689B0BDF94870CDE9AC
:10C0E0000323BDF94C30FA1DCDE90101059348BF8A
:10C0F00007F10E02BDF850304FEAE20B05992AB263
:10C1000091422ADD4FF00008049A02EB040A039AD8
:10C110002A4412B20FFA88F087421FFA88F119DD1B
:10C12000C0101AF800C001F0070049FA00F01CEA3C
:10C13000000F0CD00298CDE906230144019809B202
:10C140000068006906460198B047DDE9062308F15A
:10C150000108DFE701355C44D0E709B0BDE8F08FA6
:10C160002DE9F04F2DED028B8DB00491BDF86010DC
:10C1700007460591BDF864109DF868500691B0F926
:10C180000C100498814252DDB7F90E1091424EDD39
:10C19000062111FB0504002C49DD02EBC504002C2F
:10C1A00045DD002403EB83030B9393B2079308331D
:10C1B0009BB208910993052C0FBF00232B4B0B9AC0
:10C1C0001B1918BF9B5C049A0393ABB20A9304FB40
:10C1D00005F3079E13FA82F31BB208EE103AB0463D
:10C1E00004EB020A0FFA85F90FFA8AFA039BDB07C0
:10C1F0002FD5012D3B681FD1D3F810B0059B5146B8
:10C20000384632B2D847039B01365B0803930A9B3A
:10C21000B6B29844099B1FFA88F8B342E6D1089B4E
:10C220000134013B13F0FF0364B20893C3D10DB096
:10C23000BDEC028BBDE8F08F059ACDE9009218EEB7
:10C24000101AD3F824B038464B460FFA88F2D84774
:10C25000D9E7DDE905239342D5D0012D3B6803D111
:10C26000D3F810B0069BCAE7069AE6E7D8F63F0275
:10C2700030B50A29044685B007D1027E638A03EBF4
:10C28000C20363820023238221E00D291FD0037E95
:10C290000293C38A0193838A0093B0F912200B465C
:10C2A000B0F91010FFF75CFF207E238A00EB4001FD
:10C2B00003EB4103A17E1BB20246238239B16FF02A
:10C2C0000505B4F90C1005FB00118B42D6DC0120EA
:10C2D00005B030BD407E7047B0F90C007047B0F932
:10C2E0000E00704709B504480068044B03441B68FE
:10C2F0009B68029309BD000080A907105000000050
:10C3000009B504480068044B03441B68DB680293CA
:10C3100009BD000080A907105000000009B50448BD
:10C320000068044B03441B685B69029309BD00006D
:10C3300080A907105000000009B504480068044BAC
:10C3400003441B685B68029309BD000080A90710C5
:10C350001400000009B504480068044B03441B683E
:10C360009B68029309BD000080A90710140000001B
:10C3700009B504480068044B03441B68DB6802935A
:10C3800009BD000080A907101400000009B5044889
:10C390000068044B03441B681B69029309BD00003D
:10C3A00080A907101400000009B504480068044B78
:10C3B00003441B685B69029309BD000080A9071054
:10C3C0001400000009B504480068044B03441B68CE
:10C3D0001B6B029309BD000080A907101400000028
:10C3E00009B504480068044B03441B685B69029369
:10C3F00009BD000080A907105400000009B50448D9
:10C400000068044B03441B689B69029309BD00004C
:10C4100080A907105400000009B504480068044BC7
:10C4200003441B685B68029309BD000080A90710E4
:10C430000000000009B504480068044B03441B6871
:10C44000DB68029309BD000080A90710000000000E
:10C4500009B504480068044B03441B681B69029338
:10C4600009BD000080A907100000000009B50448BC
:10C470000068044B03441B685B69029309BD00001C
:10C4800080A907100000000009B504480068044BAB
:10C4900003441B68DB6D029309BD000080A90710EF
:10C4A0000000000009B504480068044B03441B6801
:10C4B0005B6C029309BD000080A9071030000000EA
:10C4C00009B504480068044B03441B685B69029388
:10C4D00009BD000080A907104C00000009B5044800
:10C4E0000068044B03441B681B6A029309BD0000EB
:10C4F00080A907104C00000009B504480068044BEF
:10C5000003441B689B6A029309BD000080A90710C1
:10C510004C00000009B504480068044B03441B6844
:10C52000DB68029309BD000080A907102400000009
:10C5300009B504480068044B03441B681B69029357
:10C5400009BD000080A907102400000009B50448B7
:10C550000068044B03441B685B69029309BD00003B
:10C5600080A907102400000009B504480068044BA6
:10C5700003441B689B69029309BD000080A9071052
:10C580002400000009B504480068044B03441B68FC
:10C59000DB69029309BD000080A907102400000098
:10C5A00009B504480068044B03441B681B6A0293E6
:10C5B00009BD000080A907102400000009B5044847
:10C5C0000068044B03441B689B6A029309BD00008A
:10C5D00080A907102400000009B504480068044B36
:10C5E00003441B681B6C029309BD000080A907105F
:10C5F0002400000009B504480068044B03441B688C
:10C600009B69029309BD000080A90710100000007B
:10C6100009B504480068044B03441B68DB690293B6
:10C6200009BD000080A907101000000009B50448EA
:10C630000068044B03441B681B6A029309BD000099
:10C6400080A907101000000009B504480068044BD9
:10C6500003441B685B6A029309BD000080A90710B0
:10C660001000000009B504480068044B03441B682F
:10C670009B6A029309BD000080A90710100000000A
:10C6800009B504480068044B03441B68DB6A029345
:10C6900009BD000080A907101000000009B504487A
:10C6A0000068044B03441B681B6B029309BD000028
:10C6B00080A907101000000009B504480068044B69
:10C6C00003441B685B6B029309BD000080A907103F
:10C6D0001000000009B504480068044B03441B68BF
:10C6E0001B6C029309BD000080A907101000000018
:10C6F00009B504480068044B03441B689B69029316
:10C7000009BD000080A907102000000009B50448F9
:10C710000068044B03441B68DB69029309BD0000F9
:10C7200080A907102000000009B504480068044BE8
:10C7300003441B681B6A029309BD000080A907100F
:10C740002000000009B504480068044B03441B683E
:10C750009B6A029309BD000080A907102000000019
:10C7600009B504480068044B03441B681B6B029323
:10C7700009BD000080A907102000000009B5044889
:10C780000068044B03441B689B6B029309BD0000C7
:10C7900080A907102000000009B504480068044B78
:10C7A00003441B681B69029309BD000080A90710A0
:10C7B0001800000009B504480068044B03441B68D6
:10C7C0005B69029309BD000080A9071018000000F2
:10C7D00009B504480068044B03441B68DB690293F5
:10C7E00009BD000080A907101800000009B5044821
:10C7F0000068044B03441B681B6A029309BD0000D8
:10C8000080A907101800000009B504480068044B0F
:10C8100003441B685B6A029309BD000080A90710EE
:10C820001800000009B504480068044B03441B6865
:10C830009B6A029309BD000080A907101800000040
:10C8400009B504480068044B03441B68DB6A029383
:10C8500009BD000080A907101800000009B50448B0
:10C860000068044B03441B689B6B029309BD0000E6
:10C8700080A907101800000009B504480068044B9F
:10C8800003441B681B6C029309BD000080A90710BC
:10C890001800000009B504480068044B03441B68F5
:10C8A0005B6C029309BD000080A90710180000000E
:10C8B00009B504480068044B03441B681B680293D5
:10C8C00009BD000080A907103400000009B5044824
:10C8D0000068044B03441B685B68029309BD0000B9
:10C8E00080A907103400000009B504480068044B13
:10C8F00003441B681B69029309BD000080A907104F
:10C900003400000009B504480068044B03441B6868
:10C910005B69029309BD000080A907103400000084
:10C9200009B504480068044B03441B689B690293E3
:10C9300009BD000080A907103400000009B50448B3
:10C940000068044B03441B68DB69029309BD0000C7
:10C9500080A907103400000009B504480068044BA2
:10C9600003441B681B6A029309BD000080A90710DD
:10C970003400000009B504480068044B03441B68F8
:10C980009B6A029309BD000080A9071034000000D3
:10C9900009B504480068044B03441B681B6D0293EF
:10C9A00009BD000080A907104800000009B504482F
:10C9B0000068044B03441B685B6D029309BD0000D3
:10C9C00080A907104800000009B504480068044B1E
:10C9D00003441B68D3F8D430029309BD80A9071023
:10C9E0004800000009B504480068044B03441B6874
:10C9F0005B68029309BD000080A9071008000000D1
:10CA000009B504480068044B03441B685B69029342
:10CA100009BD000080A907100800000009B50448FE
:10CA20000068044B03441B68DB6A029309BD0000E5
:10CA300080A907100800000009B504480068044BED
:10CA400003441B68D3F88830029309BD80A90710FE
:10CA50000800000009B504480068044B03441B6843
:10CA6000D3F89430029309BD80A907100800000094
:10CA700009B504480068044B03441B685B680293D3
:10CA800009BD000080A907102800000009B504486E
:10CA90000068044B03441B689B68029309BD0000B7
:10CAA00080A907102800000009B504480068044B5D
:10CAB00003441B68DB68029309BD000080A90710CE
:10CAC0002800000009B504480068044B03441B68B3
:10CAD0001B69029309BD000080A90710280000000F
:10CAE00009B504480068044B03441B685B69029362
:10CAF00009BD000080A907102800000009B50448FE
:10CB00000068044B03441B689B69029309BD000045
:10CB100080A907102800000009B504480068044BEC
:10CB200003441B68DB69029309BD000080A907105C
:10CB30002800000009B504480068044B03441B6842
:10CB40001B6A029309BD000080A90710280000009D
:10CB500009B504480068044B03441B681B6B02932F
:10CB600009BD000080A907102800000009B504488D
:10CB70000068044B03441B685B6B029309BD000013
:10CB800080A907102800000009B504480068044B7C
:10CB900003441B681B6C029309BD000080A90710A9
:10CBA0002800000009B504480068044B03441B68D2
:10CBB0005B6C029309BD000080A9071028000000EB
:10CBC00009B504480068044B03441B685B6D02937D
:10CBD00009BD000080A907102800000009B504481D
:10CBE0000068044B03441B689B6D029309BD000061
:10CBF00080A907102800000009B504480068044B0C
:10CC000003441B689B68029309BD000080A90710BC
:10CC10002C00000009B504480068044B03441B685D
:10CC2000DB6B029309BD000080A907102C000000F7
:10CC300009B504480068044B03441B681B68029351
:10CC400009BD000080A907100400000009B50448D0
:10CC50000068044B03441B685B68029309BD000035
:10CC600080A907100400000009B504480068044BBF
:10CC700003441B689B68029309BD000080A907104C
:10CC80000400000009B504480068044B03441B6815
:10CC90005B6A029309BD000080A907100400000030
:10CCA00009B504480068044B03441B68DB6B02931E
:10CCB00009BD000080A907100400000009B5044860
:10CCC0000068044B03441B681B6C029309BD000001
:10CCD00080A907100400000009B504480068044B4F
:10CCE00003441B685B6C029309BD000080A9071018
:10CCF0000400000009B504480068044B03441B68A5
:10CD00009B6D029309BD000080A90710040000007C
:10CD100009B504480068044B03441B68DB6D0293AB
:10CD200009BD000080A9071004000000002240682F
:10CD30001146FFF7FFBE002240681146FFF716BFFD
:10CD400000224068FFF704BF0022406881F0010123
:10CD5000FFF7E2BE002340681A461946FFF7CEBE31
:10CD6000002340681A461946FFF7BABE0022406801
:10CD70001146FFF7A7BE002240681146FFF786BEA6
:10CD8000002202214068FFF78FBE002340681A4648
:10CD9000FFF76EBE0322024B5A60024A1A607047C8
:10CDA00014AF071014FC3F020022024BC3E900221B
:10CDB0009A6070471CAF07100021FFF76BBD002180
:10CDC000FFF75ABD10B5044608462170FFF700FD75
:10CDD00000232046636010BD0078FFF7F0BF0078A5
:10CDE000FFF7EABF30B50024400818601868E5B2C4
:10CDF000884206D90134082C02D040081860F5E7B3
:10CE00000725024B5B5D137030BD00BF50FC3F0235
:10CE100000232DE9F041044688B000780E461746FD
:10CE20000293FFF7CCFF054600BB0146142203A87E
:10CE300094F8008001F0A9FA0B232A46404603A982
:10CE4000ADF80C30FFF7E0FC07FB06F1049802ABED
:10CE50000DF107028DF80750FFF7C4FF20789DF809
:10CE60000710FFF799FC2078FFF7A6FF029808B09B
:10CE7000BDE8F08108B50078FFF79CFCC0B208BDA2
:10CE800030B587B00A9D044600950078FFF7CAFCCC
:10CE90003DB9207802A9FFF7E1FC9DF81430DB07CB
:10CEA000F7D407B030BD000002220020044B1A6006
:10CEB000044B054AC3E900009A60FFF793BD00BF29
:10CEC00034AF071028AF07100000FFFF10B504466D
:10CED000006808B1FFF7BAFE0023C4E901332360FC
:10CEE00010BD38B504460D4600680131FFF7BCFEA1
:10CEF00010B1C4E90005012038BD10B5036804462F
:10CF000023B143688B4201D3012010BD2046FFF7B7
:10CF1000E8FF0028F9D0A368002BF5D12268137030
:10CF2000F2E737B50D46114601920446FFF7E5FFDB
:10CF3000019A28B92046FFF7C9FF204603B030BD4B
:10CF40002946A260206801F013FA00212268A36834
:10CF5000D154F2E7002313B50446C0E900338360DF
:10CF6000037341B108460191FEF7ACF801990246FE
:10CF70002046FFF7D6FF204602B010BD002302482E
:10CF80000360FFF78FBA00BF38AF0710F8B5064649
:10CF90000D4600248F18BD420CD0336830469B6884
:10CFA00015F8011B9847031E01DB1C44F3E7002C16
:10CFB00008BF1C462046F8BD13B50446084659B1C3
:10CFC0000191FEF77FF80246204623680199DB684D
:10CFD00002B0BDE81040184702B010BD03689B685E
:10CFE000184738B50D210546FFF7F8FF0A2104461A
:10CFF0002846FFF7F3FF204438BD0023012A98BFDD
:10D000000A2230B58BB08DF8243009AC0D46B1FB47
:10D01000F2F101FB125303F0FF03092B94BF3033ED
:10D020003733DBB2AA4204F8013DEFD92146FFF7BE
:10D03000C3FF0BB030BD2DE9F04186B000AF05460F
:10D040000E46381D142114463B60FFF71BFE1328C3
:10D050000ED82846391DFFF7AFFF04461EB12846FB
:10D06000FFF7BFFF044420461837BD46BDE8F081F6
:10D0700000F1080323F00703E846ADEB030D224659
:10D08000411C3B686846FFF7FDFD69462846FFF7EF
:10D0900093FF0446C546E1E710B50446FFF7E6F9FD
:10D0A000E060236820465B699847002808DAFFF7AC
:10D0B000DDF9E368C01AA3689842F2D34FF0FF305D
:10D0C00010BD2DE9F04107460C460D468E18B542BD
:10D0D000A5EB040807D03846FFF7DEFF031E02DB8E
:10D0E00005F8013BF3E74046BDE8F081014B024AF9
:10D0F0001A6070473CAF071060FC3F02024B1A6891
:10D10000024B1A60704700BFACAD071040AF07106C
:10D110000021FFF775BC00000022014B9A607047A8
:10D1200044AF0710014B1860704700BFB0AD071047
:10D1300008B50F4B43B100F08DF903681B699847A0
:10D14000002801DD00E000BF0A4B43B100F026FFDC
:10D1500003681B699847002801DD00E000BF064B0B
:10D160000BB100F061FF054B0BB100F093FF08BD60
:10D1700000000000000000000000000000000000AF
:10D1800008B5FFF7D5FFFFF771F9014B186008BD2F
:10D19000E0AF07100548064A08B5121A054901F024
:10D1A000E7F8054B054A1A6008BD00BF00B4071038
:10D1B00004B407106CFB5F0800B407101E1C279A0C
:10D1C000002307B51A466FF077010093FFF742FC82
:10D1D00003B05DF804FB000007B543880A2B08D0B4
:10D1E000502B0BD1094B1B684BB103B05DF804EB1E
:10D1F0001847FFF7E5FF03B05DF804FB00231A466C
:10D200006FF077010093FFF725FCF4E758AF0710A4
:10D21000002110B51148FFF75FFD114B1A68114B43
:10D220009A420CBF012200220F4B1A7001D0FFF767
:10D23000B1FFFFF7F1F8044601F0B0F80B4B13B162
:10D24000204600E000BF00210848FFF7E3FCBDE8EE
:10D25000104000210648FFF7EFBB00BF45DA3F0250
:10D2600000B407101E1C279A54AF071000000000DE
:10D27000F9DA3F02704710B504461821FDF74BFF5D
:10D28000204610BDF0B5037D0E46062B4FF000047E
:10D290008DB000F1040712D000F1080515F8011D4A
:10D2A0000A223046FFF7A9FEAF42044419D0002CF1
:10D2B000F4D02E213046FFF791FE0444EEE72F23F1
:10D2C0006A4639460A208DF80040FFF7F9F86846AB
:10D2D000FDF7F8FE3368024669463046DB6898473A
:10D2E000044620460DB0F0BD10B50446044B112293
:10D2F000002140F8043B01F048F8204610BD00BF73
:10D3000088FC3F020346074A10B543F8042B01F19D
:10D31000100251F8044B914243F8044BF9D10A78BA
:10D320001A7010BD88FC3F02037D042B04D14068B5
:10D33000003818BF01207047062B07D143683BB95E
:10D3400083682BB9C3681BB90069F1E700207047F7
:10D350000120704710B59DF8084044EA032343EAD2
:10D360000242042342EA01614160037510BD0000DE
:10D3700007B5064B0360CB7800938B784A78097821
:10D38000FFF7E8FF03B05DF804FB00BF88FC3F0235
:10D39000417470477047704708B50021007CFFF763
:10D3A000BFFA40EAE07008BD08B50121007CFFF734
:10D3B000B7FA40EAE07008BD08B5007CFFF7A2FAB2
:10D3C00020EAE07008BD08B5007CFFF78DFA20EA7E
:10D3D000E07008BD13B50446007C0191FFF792FA96
:10D3E0000028019901DC607C20B1207CFFF7A6FABF
:10D3F00020EAE07002B010BD007CFFF7ADBA10B5B6
:10D4000004461421FDF787FE204610BD10B54FF4E9
:10D410007A73044608460021C4E90113044B2074C2
:10D420002360012311466374FFF742FA204610BDC2
:10D430009CFC3F020022007CFFF748BA007CFFF70B
:10D4400099BA10B504461422002100F09EFF204630
:10D4500010BD000010B588B003A8FFF7F2FF0C4C18
:10D46000D4E88F1F11F001010FD120460191FFF781
:10D4700041FC019948B103AA0648FFF7C7FF2046BF
:10D48000FFF746FC044800F06DFF024808B010BDED
:10D490005CAF071060AF0710B5DC3F027047417406
:10D4A000704708B5007CFFF789F820EAE07008BDF6
:10D4B00008B5007CFFF73CF820EAE07008BD08B52D
:10D4C000007CFFF751F840EAE07008BD08B5007C29
:10D4D000FFF73CF840EAE07008BD007CFFF752B867
:10D4E00037B5457C04462DB1207C03B0BDE8304003
:10D4F000FFF710B8007C0191FFF760F80028019950
:10D50000F2DC284603B030BD10B504461421FDF707
:10D5100002FE204610BD000010B54FF47A73044699
:10D52000084611460022C4E90123044B20742360FD
:10D5300001236374FFF750F8204610BDD0FC3F0272
:10D54000007CFFF72DB87047F8B5064615460C4627
:10D550008F18BC4206D0336830469B6814F8011B14
:10D560009847F6E72846F8BD0022007CFFF75EB832
:10D570000021007CFFF768B80021007CFFF772B83B
:10D580000021007CFFF77CB80021007CFFF786B803
:10D5900010B504461421FDF7BEFD204610BD000065
:10D5A00038B5044615464FF47A730022C4E90123C6
:10D5B000094B0846217423602946FFF78BF8BF30DA
:10D5C00008D16B69DB0705D56868FFF73FFBE868A2
:10D5D000FFF73CFB204638BD04FD3F020022007CE3
:10D5E000FFF708B8C9B2FFF7F9BF0022007CFFF7C8
:10D5F0000FB80121FFF7F9BFFF210022044B0120E2
:10D60000C3E9001264211A61C3E90201704700BF37
:10D6100074AF071013B503688DF807101C6C012256
:10D620004FF0FF330DF10701A04702B010BD10B459
:10D6300003681C6C4FF0FF33A4465DF8044B604751
:10D6400013B5134602688DF80710146C0DF107012D
:10D650000122A04702B010BD10B543690446B3F8DB
:10D660008620B3F884309A4208D06369B3F88420E6
:10D67000511CA3F884101344187910BD03681B696A
:10D6800098470028F1D14FF0FF30F6E77047436923
:10D690001868C043C00F704770470000064B10B5B4
:10D6A000994200F10C0405D0084600F049FD00281D
:10D6B00008BF0024204610BD58FC3F0210B50446A8
:10D6C000AC21FDF728FD204610BDAC21FDF723BDA0
:10D6D0002DE9F0414FF000081C4686B0C0F80480E8
:10D6E00005460E4617464146102202A800F04DFEA0
:10D6F000631C09D04FF47A73B4FBF3F203FB1244BA
:10D700005C43CDE90228049410236869009341F238
:10D71000050240F6FF71006802ABFEF7E9FF002842
:10D7200007DAFFF7BDFA036800206B6006B0BDE8BA
:10D73000F081686900233A4631460068FFF710F827
:10D74000031EEEDB1846F1E730B5044687B06846A5
:10D75000FFF70EFE01AD04340FCD0FC42B6823700C
:10D7600007B030BD70B5044606464D69044B8C3594
:10D7700044F8043B0FCD0FC42B683046237070BDB6
:10D7800088FC3F022DE9F0430D46002498460368CB
:10D7900093B01B6B06461746984728466B462246B1
:10D7A00021460094FEF7ACFD0546002863D1009B9E
:10D7B000002B4BD05B69002B48D006A8FFF794FDE7
:10D7C000009B5C696378022B04D1211D06A8FFF73A
:10D7D000BBFF26E00A2B24D11122294601A800F024
:10D7E000D4FDA368002B38D004F108030DF1040C1C
:10D7F0001834624618685968083303C2A342944635
:10D80000F7D1062301A90CA88DF8143007ACFFF757
:10D8100079FD0DF1340CBCE80F000FC4DCF80030CA
:10D82000237006A8FFF780FD80B133680DACD3F8F4
:10D830002490124B07AD0C930FCD0FC42B683A46C2
:10D840002370304643460CA9C84705460098FEF7AA
:10D8500049FD284613B0BDE8F083E368002BC3D12F
:10D860004FF6FF70D4F81090FEF738FE8145BBD11B
:10D8700004F11401AAE72546E8E700BF88FC3F024F
:10D8800038B5436905461A68002A10DAB3F88620CD
:10D89000B3F884309A420AD103681B69984704465A
:10D8A00028B92B6828461B6B9847204638BD0120B5
:10D8B000FCE710B543690446B3F88620B3F884301A
:10D8C0009A4205D06369B3F884201344187910BDD7
:10D8D00003681B6998470028F4D14FF0FF30F6E742
:10D8E000F8B543691746B3F88620B3F88430054687
:10D8F0009A420E4616D069693046B1F88430B1F8C4
:10D900008640E41ABC4228BF3C46043322461944F0
:10D9100000F02EFD6A69B2F884302344A2F8843006
:10D920002046F8BD03681B6998470028E3D14FF0F3
:10D93000FF34F5E700234269A2F884304269A2F877
:10D9400086307047F0B50C461F4603688BB01B6BE2
:10D95000054616469847237D0622042B0CBF02205D
:10D960000A200121FEF70AFF6B6918606B691B68CA
:10D97000002B07DA2B6828461B6B002498472046AB
:10D980000BB0F0BD2846FFF7D5FFB7B1002303A9C0
:10D99000F8B20393ADF81030FEF722FD0028E9D16C
:10D9A00006236869009341F20B0240F6FF7100689C
:10D9B00003ABFEF79DFE0028DCD11C22002103A84A
:10D9C00000F0E3FC237D042B1DD14FF40773304698
:10D9D000ADF80C30FEF790FDADF80E006068FEF774
:10D9E0007DFD04906B691C22186803A9FEF79CFE5C
:10D9F0000028BFD16D6904348C350FCC0FC5236866
:10DA000001242B70BBE740F61C233046ADF80C30E8
:10DA1000FEF772FD05AEADF80E00231D04F11407EC
:10DA2000324618685968083303C2BB421646F7D11C
:10DA3000D8E7000030B542690446B2F886308BB0B2
:10DA40002BB1B2F884209A4201D1FFF773FF6169CC
:10DA50000868002818DBB1F886507F2D14D80431EF
:10DA60000823C5F180022944FEF76CFE002813DD6F
:10DA70006369B3F886200AB9A3F884206369B3F810
:10DA800086201044A3F886006369B3F88600B3F8D3
:10DA90008430C01A0BB030BDFFF702F903680B2BBE
:10DAA000F2D0FFF7FDF803680B2BEDD02023002503
:10DAB000CDE90235FFF7F4F8036802AA0193084B99
:10DAC0003220084900932B46FEF762FF636918680D
:10DAD000FEF71CFE4FF0FF3263691A60D4E700BF07
:10DAE0002FFD3F0228FD3F0210B543690446186828
:10DAF000002801DBFEF70AFE4FF0FF3263690021C8
:10DB00001A60606911228C3000F03FFC2046BDE8AD
:10DB10001040FFF70FBF002310B504460160C0F8A6
:10DB200084308830FFF7E0FB204610BD00234FF41F
:10DB30007A7273B5C0E901320E4A03610260436133
:10DB40000446AC200191FDF7E2FA051E05F10C0632
:10DB500008D00123C5E90133074B304601992B60FA
:10DB6000FFF7D9FF2046C4E90565FFF7E3FE02B0E1
:10DB700070BD00BF64FD3F0248FD3F0210B5044682
:10DB80004FF0FF31FFF7D2FF204610BD10B504461D
:10DB90000068002801DBFEF7B9FD204610BD0C30FF
:10DBA000FFF7F4BF002240681146FEF78BBF00224A
:10DBB00040681146FEF7BEBF002240681146FEF7DE
:10DBC000D5BF00224068FEF7C3BF0022406881F045
:10DBD0000101FEF7A1BF002340681A461946FEF76F
:10DBE0008DBF002340681A461946FEF779BF002210
:10DBF00040681146FEF74ABF002202214068FEF746
:10DC000053BF002340681A46FEF732BF0422024B7E
:10DC10005A60024A1A60704788AF0710B4FD3F028D
:10DC2000002340681A46FEF723BF00220221406805
:10DC3000FEF73ABF002240681146FEF727BF0022D8
:10DC400040681146FEF73EBF002340681A46194659
:10DC5000FEF746BF002340681A461946FEF74EBF3E
:10DC600000214068FEF790BF00214068FEF79ABF90
:10DC70000022406881F00101FEF74EBF002240689B
:10DC8000FEF766BF002240681146FEF76FBF002214
:10DC900040681146FEF74EBF00214068FEF79EBF68
:10DCA0002DE9F0430026984699B00D4614460746E4
:10DCB000FFF71AFB1C22314611A8039600F065FB02
:10DCC000B8F1000F2CD1402368681093049618B166
:10DCD00004A9C0B2FEF792FB049B204600930021EA
:10DCE00003AB10AAFEF71AFB044600284DD10246EA
:10DCF00001216868FEF7E6FE022180462246686838
:10DD0000FEF7E0FE21468146039E002E3DD000290D
:10DD10003BD17368022B05D00A2B13D0F669F4E7C8
:10DD20001D4BD1E7B8F1000FF8D071690AA8043192
:10DD30003C1D0BADFFF71CFB0FCD0FC42B684146FC
:10DD40002370EBE7B9F1000FE8D0102205A8746941
:10DD500000F01BFB062305AD8DF8243004F1080309
:10DD600018342A4618685968083303C2A342154676
:10DD7000F7D105A90AA83C1D0BADFFF7C3FA0FCDDB
:10DD80000FC42B6849462370C8E70398FEF7AAFA28
:10DD9000384619B0BDE8F08340000040033802283F
:10DDA0009ABF024B53F8200001487047F0FD3F0234
:10DDB00090AF071008B500224068FEF701FFBDE8EC
:10DDC0000840FFF7EBBF0000024B034A1A60002235
:10DDD0005A60704790AF071004FE3F02FEF7C8BAC2
:10DDE0001B2837B5044602D9002003B030BDA0F18E
:10DDF0000F03022B0BD9012821D800F07BF9002159
:10DE0000007CFEF759FC80F00100C0B2EDE7114D37
:10DE1000D5E88F1F11F001010BD128460191FEF7C3
:10DE200069FF019928B10C48FEF7CCFF2846FEF7A0
:10DE30006FFF094B1878FEF7D9FC0028D4D1083CB5
:10DE4000012C05D800F0AAF8007CFEF7A9FBDAE760
:10DE50000120CAE708AF07100CAF07101B2838B520
:10DE600004460D460AD8FF2908D0FFF7B9FF28B1AC
:10DE700029462046BDE83840FEF76CBA38BD38B5B3
:10DE800004460D46FEF774FAFF2810D0062804D881
:10DE90004D2323FA00F0C30709D42046FFF7A0FF63
:10DEA00028B129462046BDE83840FEF76FBA38BD94
:10DEB00010B50446FEF75CFA031FDBB2012B08D94C
:10DEC0002046FFF78DFF20B12046BDE81040FEF749
:10DED0006BBA002010BD10B50446FFF781FF50B1AA
:10DEE00003212046FEF728FA032804D12046BDE886
:10DEF0001040FEF767BA002010BD2DE9F0419046B2
:10DF00001F46072406460D46C4F10701B8F1000F6D
:10DF100012D147FA01F1304601F00101FFF7AFFFDE
:10DF200001212846FFF7ABFF00212846FFF7A7FF96
:10DF3000013CE9D2BDE8F08147FA04F1EBE7704714
:10DF400038B5142504462A46002100F01EFA258023
:10DF50004025074928462581258200F0EFF804492D
:10DF60006060284600F0EAF8E060204638BD00BF57
:10DF700040FE3F027047704710B50446FFF7E0FFD0
:10DF8000204610BD10B50446FFF7DAFF204610BD4D
:10DF900010B50446FFF7D4FF204610BD30B50E4D36
:10DFA00087B0D5E88F1F11F0010411D12846FEF784
:10DFB000A1FE68B101A8FFF7DFFF214601AA0748CB
:10DFC000FFF7AAFA2846FEF7A3FE054800F0CAF9B3
:10DFD000024807B030BD00BF98AF0710A4AF0710CC
:10DFE0005FE83F0210B50D4C86B0D4E88F3FDB07E9
:10DFF00011D42046FEF77EFE68B101A8FFF7C2FFEC
:10E00000012101AA0648FFF787FA2046FEF780FEA5
:10E01000044800F0A7F9024806B010BD9CAF0710F5
:10E02000B8AF071097E83F0210B5FFF7DBFF074BCB
:10E03000044653B1FFF784FA38B1236820461B69C0
:10E040009847002801DD00E000BF10BD000000007F
:10E0500010B50D4C86B0D4E88F3FDB0711D42046B5
:10E06000FEF748FE68B101A8FFF792FF022101AA5E
:10E070000648FFF751FA2046FEF74AFE044800F032
:10E0800071F9024806B010BDA0AF0710CCAF071061
:10E0900095E83F0210B5FFF7DBFF074B044653B18D
:10E0A000FFF74EFA38B1236820461B6998470028CD
:10E0B00001DD00E000BF10BD00000000704700005F
:10E0C00038B50A4B04460360012309494361202007
:10E0D00000F034F82025606005492846A56000F06E
:10E0E0002DF8C4E90305204638BD00BF1800010023
:10E0F00040FE3F0230B50E4D87B0D5E88F1F11F0BE
:10E10000010411D12846FEF7F5FD68B16846FFF716
:10E11000D7FF6A4621460748FFF742FA2846FEF72E
:10E12000F7FD054800F01EF9024807B030BD00BFFA
:10E13000E4AF0710E8AF0710DDE93F02FCF7E9BFE5
:10E14000014900F0F9B800BF5CFE3F027FB5002432
:10E15000102315461268CDE902340368CDE9004466
:10E160009E696B46B0479DF8043003F00603062B0A
:10E1700005BF009B012020462B6004B070BD0098B5
:10E18000904214BF0120062070470000034B10B5D9
:10E190000446036000F0CDF8204610BD9CFE3F020F
:10E1A00010B50446FFF7F2FF08212046FCF7B3FF45
:10E1B000204610BD2DE9F041DDF818801F460646C7
:10E1C0001546DDE90834984507D1079900F0B4F801
:10E1D00018B165710020BDE8F0813946304600F085
:10E1E000ABF80028F6D00123C4F800802571A37194
:10E1F000F0E738B515461C4600F09EF820B108231C
:10E200002560E3600623237138BD73B505460C46CF
:10E210001E46019200F090F850B9032E08D82368EA
:10E220002946019A20465B6902B0BDE87040184754
:10E2300002B070BD034B10B504460360FFF7A6FFA4
:10E24000204610BDFCFE3F0210B50446FFF7F2FF6A
:10E250000C212046FCF75FFF204610BDF7B5089F54
:10E2600005460E46144697420AD0A8683146026811
:10E270000897156A2246AC4603B0BDE8F0406047F7
:10E280001946019300F058F8019B0028EDD00620B4
:10E2900003B0F0BD2DE9F14F0D46194681461746F2
:10E2A0009846DDE90A4BDDE90CA600F045F890B18F
:10E2B000002D3460377109DB61198A450CBF0621D6
:10E2C0000121B171002001B0BDE8F08F0235F9D114
:10E2D0000123B371F6E7544506D15946484600F08C
:10E2E0002BF808B17771EDE7D9F808003A462946CE
:10E2F0000368CDE90CA6CDE90A4BDC694346A44688
:10E3000001B0BDE8F04F60472DE9F04107460C46EB
:10E3100015461E46FFF76DFF48B9B8682A462146E4
:10E3200003689F693346BC46BDE8F0416047BDE8DD
:10E33000F081704700207047814208B50ED04068D8
:10E3400003782A2B0CD049680B782A2B08BF01319F
:10E35000FCF7AEFEB0FA80F0400908BD0120FCE7F2
:10E360000020FAE7002301461A461846FCF7EEBEE5
:10E370000A44431E914200D1704710B511F8014B79
:10E38000914203F8014FF9D110BD02440346934274
:10E3900000D1704703F8011BF9E7000038B5104BB6
:10E3A00004461D68AB6BB3B91820FEF741FC02466A
:10E3B000A86320B90B4B42210B48FEF77FFC0B49A9
:10E3C0000B4BC0E900130B4B002183600B238381AF
:10E3D0000120C2E90401AB6B00221C615A6138BD07
:10E3E000B0AD071035FF3F024CFF3F020E33CDABFF
:10E3F00034126DE6ECDE0500F5B93F021DBA3F02AE
:10E4000021BA3F020000000043616C6C206F6E2057
:10E4100070757265207669727475616C004E6F203C
:10E420004368616E6765202D2043616E63656C6C87
:10E43000696E6720434D440A007B226F6E223A7456
:10E440007275652C22736174223A002C2262726903
:10E45000223A002C22687565223A007B226F6E22D8
:10E460003A66616C73657D0053656E64696E672002
:10E47000436F6D6D616E6420746F204875653A203E
:10E4800025730A00505554202F6170692F002F6C9E
:10E4900069676874732F002F737461746520485422
:10E4A00054502F312E31006B6565702D616C69768B
:10E4B0006500486F73743A2000436F6E74656E7424
:10E4C0002D4C656E6774683A2000436F6E74656EFC
:10E4D000742D547970653A20746578742F706C616E
:10E4E000696E3B636861727365743D5554462D389F
:10E4F0000072656164696E672025690A0054494DA0
:10E500004520544F00474F20504F5454592121006B
:10E51000474F4F44204A4F420057594154542121FC
:10E52000002569000000000000000000000000005D
:10E5300000000000000000000000000000000000DB
:10E5400000000000000000000000000000000000CB
:10E5500000000000000000000000000000000000BB
:10E5600000000000000000000000000000000000AB
:10E57000000000000000000000000000000000009B
:10E58000000000000000000000000000000000008B
:10E5900000000000000000000000000FF00000007C
:10E5A00000000000000000000000007FFE000000EE
:10E5B0000000000000000000000001FFFF800000DC
:10E5C0000000000000000000000003F81FC0000071
:10E5D0000000000000000000000007C003E0000091
:10E5E000000000000000000000000F8001F00000AB
:10E5F000000000000000000000001E000078000085
:10E60000000000000000000000003C00003C000092
:10E61000000000000000000000007800001E000064
:10E62000000000000000000000007000001E00005C
:10E6300000000000000000000000F000000F0000DB
:10E6400000000000000000000000E00000070000E3
:10E6500000000000000000000001E0000007800052
:10E6600000000000000000000001C0000003800066
:10E6700000000000000000000003C0000003C00014
:10E680000000000000000000000380000001C00046
:10E690000000000000000000000380000001C00036
:10E6A0000000000000000000000780000001E00002
:10E6B0000000000000000000000700000000E00073
:10E6C0000000000000000000000700000000E00063
:10E6D0000000000000000000000700000000E00053
:10E6E0000000000000000000000F00000000F0002B
:10E6F0000000000000000000000E00000000F0001C
:10E700000000000000000000000E0000000070008B
:10E710000000000000000000000E0000000070007B
:10E720000000000000000000000E0000000070006B
:10E730000000000000000000000E0000000070005B
:10E740000000000000000000000E0000000070004B
:10E750000000000000000000000E0007E000700054
:10E760000000000000000000000E001FF800700014
:10E770000000000000000000000E007FFC00F00020
:10E780000000000000000000000F007FFE00E0001D
:10E790000000000000000000000700FFFF00E00094
:10E7A0000000000000000000000701FFFF80E00003
:10E7B0000000000000000000000701FFFF80E000F3
:10E7C0000000000000000000000783FFFFC1E00020
:10E7D0000000000000000000000383FFFFC1C00034
:10E7E0000000000000000000000383FFFFC1C00024
:10E7F00000000000000000000003C3FFFFC3C000D2
:10E8000000000000000000000001C3FFFFC3800003
:10E8100000000000000000000001E3FFFFC78000CF
:10E8200000000000000000000000E3FFFFC7000040
:10E8300000000000000000000000F3FFFFCF000018
:10E840000000000000000000000079FFFF9E0000B3
:10E850000000000000000000000079FFFF9E0000A3
:10E86000000000000000000000003CFE7F3C0000B3
:10E87000000000000000000000001EFC3FF8000047
:10E88000000000000000000000000FF81FF0000072
:10E890000000000000000000000007F81FE000007A
:10E8A0000000000000000000000003FC3FC000006A
:10E8B0000000000000000000000000FFFF0000005A
:10E8C00000000000000000000000003FFC0000000D
:10E8D00000000000000000000000000FF000000039
:10E8E0000000000000000000000000000000000028
:10E8F0000000000000000000000000000000000018
:10E900000000000000000000000000000000000007
:10E9100000000000000000000000000000000000F7
:10E9200000000000000000000000000000000000E7
:10E9300000000000000000000000000000000000D7
:10E9400000000000000000000000000000000000C7
:10E9500000000000000000000000000000000000B7
:10E9600000000000000000000000000000000000A7
:10E970000000000000000000000000000000000097
:10E980000000000000000000000000000000000087
:10E990000000000000000000000000000000000077
:10E9A0000000000000000000000000000000000067
:10E9B0000000000000000000000000000000000057
:10E9C0000000000000000000000000000000000047
:10E9D0000000000000000000000000000000000037
:10E9E0000000000000000000000000000000000027
:10E9F0000000000000000000000000000000000017
:10EA00000000000000000000000000000000000006
:10EA100000000000000000000000000000000000F6
:10EA200000000000000000000000000000000000E6
:10EA300000000000000000180000000000000000BE
:10EA4000300000000000003C00000000000000005A
:10EA5000780000000000003E000000000000000000
:10EA6000F80000000000003F00000000000000016E
:10EA7000F00000000000001F800000000000000304
:10EA8000E00000000000000FC000000000000007D0
:10EA9000E000000000000007E00000000000000FA0
:10EAA000C00000000000000FF00000000000001F88
:10EAB000800000000000001FF80000000000007F40
:10EAC000800000000000003FFC000000000000FF8C
:10EAD000C00000000000007F7F000000000001FF78
:10EAE000E0000000000000FC1F800000000003F3B5
:10EAF000F0000000000001F80FE0000000000FE14E
:10EB0000F8000000000003F007F0000000001FC044
:10EB1000FC000000000003E007FC000000007F0094
:10EB20007F000000000007C00FFF00000001FF0091
:10EB30003F000000000007800FFFC0000007FF003B
:10EB40001F800000000001001F9FF000003FFF80B9
:10EB50000F800000000000001F07FE0001FFCF80B3
:10EB600007000000000000003E01FFF83FFF07C063
:10EB700000000000000000003E00FFFFFFFC07E077
:10EB800000000000000000007C00FFFFFFFC03E02D
:10EB90000000000000000000FC00F1FFFF3C01F05D
:10EBA0000000000000000000F800F007C03C01F089
:10EBB0000000000000000001F000F007803C00F8B9
:10EBC0000000000000000001F001F007803C00FCA4
:10EBD0000000000000000000E001E007801E007C53
:10EBE00000000000000000000001E007801E007C23
:10EBF00000000000000000000001E007801E003857
:10EC000000000000000000000001E007801E00007E
:10EC100000000000000000000001E007801E00006E
:10EC200000000000000000000003C007800F00008B
:10EC300000000000000000000003C007800F00007B
:10EC400000000000000000000003C007800F00006B
:10EC5000000000000000000000008007800F00009E
:10EC60000000000000000000000000078006000017
:10EC7000000000000000000000000007800000000D
:10EC800000000000000000000000000780000000FD
:10EC900000000000000000000000000380000000F1
:10ECA0000000000000000000000000000000000064
:10ECB0000000000000000000000000000000000054
:10ECC0000000000000000000000000000000000044
:10ECD0000000000000000000000000000000000034
:10ECE0000000000000000000000000000000000024
:10ECF0000000000000000000000000000000000014
:10ED00000000000000000000000000000000000003
:10ED100000000000000000000000000000000000F3
:10ED2000000000005350492F5350493120696E7440
:10ED3000657266616365206E6F7420646566696ED6
:10ED400065642100506978656C2074797065206E67
:10ED50006F7420737570706F7274656421000000A9
:10ED60004E6F7420656E6F756768206D656D6F728C
:10ED70007920617661696C61626C65210000000038
:10ED800000000000000000007DC53F020DC63F02EC
:10ED900091CB3F02ADD83F0281C53F0215C83F026B
:10EDA00005C43F0291C23F02D3C83F0271C93F026E
:10EDB000A7C93F02C3C93F0200000000003E5B4FED
:10EDC0005B3E3E6B4F6B3E1C3E7C3E1C183C7E3CCB
:10EDD000181C577D571C1C5E7F5E1C00183C1800D9
:10EDE000FFE7C3E7FF0018241800FFE7DBE7FF3069
:10EDF000483A060E2629792926407F050507407FD7
:10EE000005253F5A3CE73C5A7F3E1C1C08081C1C49
:10EE10003E7F14227F22145F5F005F5F06097F013F
:10EE20007F006689956A606060606094A2FFA2942A
:10EE300008047E040810207E201008082A1C0808F8
:10EE40001C2A08081E101010100C1E0C1E0C303846
:10EE50003E3830060E3E0E06000000000000005F47
:10EE600000000007000700147F147F14242A7F2A63
:10EE70001223130864623649562050000807030025
:10EE8000001C2241000041221C002A1C7F1C2A0871
:10EE9000083E0808008070300008080808080000D4
:10EEA00060600020100804023E5149453E00427F48
:10EEB000400072494949462141494D331814127F97
:10EEC0001027454545393C4A494931412111090737
:10EED0003649494936464949291E000014000000B8
:10EEE000403400000008142241141414141400418A
:10EEF00022140802015909063E415D594E7C121147
:10EF0000127C7F494949363E414141227F4141417E
:10EF10003E7F494949417F090909013E41415173F9
:10EF20007F0808087F00417F41002040413F017F6A
:10EF3000081422417F404040407F021C027F7F0432
:10EF400008107F3E4141413E7F090909063E41517B
:10EF5000215E7F09192946264949493203017F016B
:10EF6000033F4040403F1F2040201F3F4038403F6C
:10EF7000631408146303047804036159494D430082
:10EF80007F4141410204081020004141417F0402B9
:10EF90000102044040404040000307080020545450
:10EFA00078407F284444383844444428384444282E
:10EFB0007F385454541800087E090218A4A49C7881
:10EFC0007F0804047800447D40002040403D007FDD
:10EFD0001028440000417F40007C047804787C08BD
:10EFE0000404783844444438FC1824241818242491
:10EFF00018FC7C08040408485454542404043F4476
:10F00000243C4040207C1C2040201C3C4030403CA4
:10F0100044281028444C9090907C4464544C440004
:10F020000836410000007700000041360800020168
:10F030000204023C2623263C1EA1A161123A404054
:10F04000207A3854545559215555794121545478D2
:10F0500041215554784020545579400C1E5272126B
:10F0600039555555593954545459395554545800F3
:10F0700000457C410002457D420001457C40F0296D
:10F080002429F0F0282528F07C54554500205454BC
:10F090007C547C0A097F4932494949323248484800
:10F0A00032324A4848303A4141217A3A4240207847
:10F0B000009DA0A07D39444444393D4040403D3C42
:10F0C00024FF2424487E4943662B2FFC2F2BFF0965
:10F0D00029F620C0887E0903205454794100004459
:10F0E0007D413048484A32384040227A007A0A0A44
:10F0F000727D0D19317D2629292F282629292926B7
:10F1000030484D4020380808080808080808382FFB
:10F1100010C8ACBA2F102834FA00007B0000081485
:10F120002A142222142A1408AA005500AAAA55AAB1
:10F1300055AA000000FF00101010FF00141414FF67
:10F14000001010FF00FF1010F010F0141414FC0059
:10F150001414F700FF0000FF00FF1414F404FC1463
:10F160001417101F10101F101F1414141F0010105C
:10F1700010F0000000001F101010101F10101010D1
:10F18000F010000000FF101010101010101010FFF1
:10F1900010000000FF140000FF00FF00001F101708
:10F1A0000000FC04F414141710171414F404F400F1
:10F1B00000FF00F714141414141414F700F71414B7
:10F1C00014171410101F101F141414F4141010F03E
:10F1D00010F000001F101F0000001F14000000FCB2
:10F1E000140000F010F01010FF10FF141414FF149E
:10F1F0001010101F00000000F010FFFFFFFFFFF0D5
:10F20000F0F0F0F0FFFFFF0000000000FFFF0F0F25
:10F210000F0F0F38444438447C2A2A3E147E0202E1
:10F220000606027E027E0263554941633844443C2F
:10F2300004407E201E2006027E020299A5E7A599C1
:10F240001C2A492A1C4C7201724C304A4D4D3030F8
:10F2500048784830BC625A463D3E494949007E01E3
:10F2600001017E2A2A2A2A2A44445F444440514A02
:10F27000444040444A51400000FF0103E080FF0049
:10F280000008086B6B083612362436060F090F0685
:10F29000000018180000001010003040FF010100AD
:10F2A0001F01011E00191D1712003C3C3C3C0000D0
:10F2B000000000000000000000000000000000004E
:10F2C0000000000091CB3F02ADD83F023DBA3F02A3
:10F2D00015C83F023BC93F0257C93F02D3C83F028E
:10F2E00071C93F02A7C93F02C3C93F020000000025
:10F2F00000000000ABD63F02A1D63F0297D63F02E6
:10F300008DD63F0281D63F0275D63F0281E53F028E
:10F3100089E53F0269D63F0261D63F0257D63F02D8
:10F320004DD63F02D5E63F02B9E53F02C1E53F02B7
:10F3300000081018202830380000000000000000ED
:10F340006170700025592D256D2D25645425483A8E
:10F35000254D3A2553257A0061736374696D650004
:10F360000000000000000000A5DB3F0295DB3F022B
:10F3700097DB3F020000000000000000B7DC3F0206
:10F380001FDD3F02F5DC3F02ADD83F02E7DC3F0264
:10F39000B9DC3F02C9DC3F0219DD3F02E3D93F027D
:10F3A000D9DC3F02B1DC3F02000000000000000099
:10F3B000BDDD3F0229DE3F0201DE3F02ADD83F0244
:10F3C000D1DD3F02EDDD3F02DFDD3F02FBDD3F022D
:10F3D000E3D93F02BFDD3F02C3DD3F020000000072
:10F3E0000000000067DE3F02B1DE3F0289DE3F021F
:10F3F00069DE3F0291DE3F0299DE3F02A1DE3F025D
:10F40000A9DE3F02E3D93F02776972696E67007235
:10F41000656376206572726F72203D20256400005E
:10F420000000000000000000B9DF3F02DDDF3F0206
:10F43000BFE43F02EBDF3F02BDDF3F020000000000
:10F44000000000008DBA3F02C1BA3F0235DF3F0223
:10F450004FDF3F0255E33F0279DF3F02D3E13F0236
:10F46000ADDF3F02E3D93F0265E23F02A5E03F0284
:10F4700001E23F0209E43F02A1E13F02AFDF3F02A8
:10F4800061DF3F02F1DF3F0285E03F020000000044
:10F490000000000023E53F0219E53F020FE53F02AF
:10F4A000C5E43F0203E53F02F7E43F0281E53F0286
:10F4B00089E53F02EBE43F02E3E43F02D9E43F0287
:10F4C000CFE43F02D5E63F02B9E53F02C1E53F0286
:10F4D00014AF071088AF071090AF071000000000AE
:10F4E0000000000041E53F024BE53F0255E53F02C9
:10F4F0005FE53F0269E53F0275E53F0281E53F02B6
:10F5000089E53F0291E53F029DE53F02A5E53F0207
:10F51000AFE53F02D5E63F02B9E53F02C1E53F0254
:10F5200000537431395F53705F6D616B655F736851
:10F53000617265645F746167000000009CFE3F02B9
:10F5400041FE3F02FCFE3F0270FE3F0220FF3F02F1
:10F550004E31305F5F637878616269763131375F51
:10F560005F636C6173735F747970655F696E666FFA
:10F57000450000000000000064FE3F02ADEA3F02CB
:10F58000C1EA3F0255EC3F0255EC3F022BEB3F0234
:10F590006DEA3F0213EB3F02D5EA3F029FEA3F02CA
:10F5A000FCFE3F02CCFE3F0264FE3F024E31305F64
:10F5B0005F637878616269763132305F5F73695F6B
:10F5C000636C6173735F747970655F696E666F45B4
:10F5D0000000000000000000C0FE3F0255EB3F02AB
:10F5E00069EB3F0255EC3F0255EC3F022BEB3F022B
:10F5F0006DEA3F0229EC3F02B5EB3F027DEB3F0293
:10F600009CFE3F0228FF3F02537439747970655F96
:10F61000696E666F005245454E54206D616C6C6F8B
:10F620006320737563636565646564002F6D6E7434
:10F630002F776F726B73706163652F776F726B7367
:10F64000706163652F4743432D31302D70697065BC
:10F650006C696E652F6A656E6B696E732D474343E7
:10F660002D31302D706970656C696E652D34385F91
:10F6700032303230313132345F3136303631383039
:10F680003634312F7372632F6E65776C69622F6E1B
:10F6900065776C69622F6C6962632F7374646C693F
:10F6A000622F72616E642E630000000049BD3F024C
:10F6B000B5D63F02C9D63F02C9D73F029DD83F0207
:10F6C0000DDA3F021DDA3F0239DA3F0219DF3F024D
:08F6D0002DE53F02E9E63F02CF
:10F6D80000000002C8AF0000E45700008CB9000029
:10F6E8008813000050C30000102700000001030722
:10F6F8000F1F3F7F0080C0E0F0F8FCFE0000000014
:10F7080000000000000000000000000000000000F1
:10F7180000000000000000000000000000000000E1
:10F7280000000000000000000000000000000000D1
:10F738000000000000000000000000808080000041
:10F74800000000000000000000000000008080C0F1
:10F75800C0000000000000000000000000000000E1
:10F768000000000000000000000000000000000091
:10F778000000000000000000000000000000000081
:10F788000000000000000000000000000000000071
:10F7980080C0E0F0F8FCF8E0000000000000000085
:10F7A8000000000000000000008080808080008051
:10F7B8008000000000808080808000FFFFFF000044
:10F7C80000008080808000008080000080FFFF8033
:10F7D80080008080008080808000808000000000A1
:10F7E80000808000008C8E84000080F8F8F880008B
:10F7F800000000000000000000000000F0F0F0F041
:10F80800F0F0F0F0F0F0F0F0E0E0C08000E0FCFE96
:10F81800FFFFFF7FFFFFFFFFFF0000000000000069
:10F8280000000000000000FEFFC70101010183FF86
:10F83800FF00007CFEC70101010183FFFFFF0038C4
:10F84800FEC78301010183C7FFFF000001FFFF011D
:10F858000100FFFF0701010100007FFF8000000099
:10F86800FFFF7F0000FFFFFF000001FFFFFF010017
:10F87800000000000000000000000000030F3F7FB0
:10F888007FFFFFFFFFFFFFFFE7C7C78F8F9FBFFF08
:10F89800FFC3C0F0FFFFFFFFFFFCFCFCFCFCFCFC0F
:10F8A800FCF8F8F0F0E0C0000103030303030103D0
:10F8B800030000000001030303030101030100002A
:10F8C8000001030303030101030300000003030015
:10F8D800000003030000000000000001030303030D
:10F8E8000301000000010301000000030301000000
:10F8F8000000000000000000000000000000008080
:10F90800C0E0F0F9FFFFFFFFFF3F1F0F87C7F7FFBA
:10F91800FF1F1F3DFCF8F8F8F87C7DFFFFFFFFFF95
:10F92800FFFFFF7F3F0F070030300000000000009E
:10F9380000000000000000000000000000000000BF
:10F94800FEFEFC00000000000000000000000000B7
:10F95800000000000000000000E0C00000000000FF
:10F96800000000000000303000000000000000002F
:10F9780000000000000000000000000000C0FEFFC2
:10F98800FFFFFFFFFFFFFFFF7F7F3F1F0F071F7F67
:10F99800FFFFF8F8FFFFFFFFFFFEF8E0000000019F
:10F9A8000000000000000000FEFE000000FCFEFC5D
:10F9B8000C06060EFCF80000F0F81C0E0606060CF5
:10F9C800FFFFFF0000FEFE00000000FCFEFC001828
:10F9D8003C7E66E6CE84000006FFFF0606FCFEFCC1
:10F9E8000C0606060000FEFE0000C0F8FC4E464667
:10F9F800464E7C7840183C76E6CECC80000000006D
:10FA080000000000000000000000000000000000EE
:10FA180001070F1F1F3F3F3F3F1F0F03000000005C
:10FA280000000000000000000F0F0000000F0F0F83
:10FA3800000000000F0F000003070E0C18180C063A
:10FA48000F0F0F0000010F0E0C180C0F0701000418
:10FA58000E0C180C0F070000000F0F00000F0F0FFF
:10FA68000000000000000F0F00000007070C0C1832
:10FA78001C0C060600040E0C180C0F0700000000F2
:10FA8800000000000000000000000000000000006E
:10FA9800000000000000000000000000000000005E
:10FAA800000000000000000000000000000000004E
:10FAB800000000000000000000000000000000003E
:10FAC800000000000000000000000000000000002E
:10FAD800000000000000000000000000000000001E
:10FAE800000000000000000000000000000000000E
:10FAF80000000000000000000000000078FC3F0249
:10FB0800B4AD071000000000000000000000000075
:10FB180000000000000000000000000000000000DD
:10FB280000000000000000000000000000000000CD
:10FB380000000000000000000000000000000000BD
:10FB480000000000000000000000000000000000AD
:10FB5800000000000000000000000000000000009D
:04FB68000000000099
:04FB6C000000000095
:10FFBE000200100000B05F08A8B05F08C8B93F0289
:10FFCE0001000A00FFFFFFFFFFFF00000102030414
:10FFDE0005060708090A0B0C0D0E0F10111213144B
:0EFFEE0015161718191A1B1C1D1E1F203E0089
:04FFFC0078563412ED
:04000005085FB018C8
:00000001FF
